:020000040000FA
:100000000C9463000C948B000C948B000C948B006C
:100010000C948B000C948B000C948B000C948B0034
:100020000C948B000C948B000C948B000C948B0024
:100030000C948B000C948B000C948B000C948B0014
:100040000C94BE050C948B000C948C050C946605E6
:100050000C948B000C948B000C948B000C948B00F4
:100060000C9408060C948B0000000000240027006C
:100070002A0000000000250028002B0000000000DE
:1000800023002600290004040404040404040202DA
:100090000202020203030303030301020408102007
:1000A0004080010204081020010204081020000012
:1000B0000008000201000003040700000000000027
:1000C00000002707060C11241FBECFEFD8E0DEBFCB
:1000D000CDBF22E0ACE4B1E001C01D92A03EB2076A
:1000E000E1F711E0A0E0B1E0E8E7FEE102C0059031
:1000F0000D92AC34B107D9F710E0C2E6D0E004C0ED
:100100002197FE010E94370DC136D107C9F70E9421
:10011000AF070C942F0F0C940000089508950895D4
:10012000AF92BF92CF92DF92EF92FF920F931F9305
:10013000CF93DF936C017B018B01040F151FEB0143
:100140005E01AE18BF08C017D10759F06991D601FA
:10015000ED91FC910190F081E02DC6010995892B6C
:1001600079F7C501DF91CF911F910F91FF90EF902B
:10017000DF90CF90BF90AF900895FC01538D448DD8
:10018000252F30E0842F90E0821B930B541710F042
:10019000CF96089501970895FC01918D828D98174F
:1001A00061F0A28DAE0FBF2FB11D5D968C91928D27
:1001B0009F5F9F73928F90E008958FEF9FEF089558
:1001C0002FB7F8948091270290912802A0912902DC
:1001D000B0912A022FBF8093330290933402A093F0
:1001E0003502B09336028BE292E00E94CC0097FF7A
:1001F00026C02FB7F8948091270290912802A091F1
:100200002902B0912A022FBF40913302509134024B
:100210006091350270913602841B950BA60BB70BCB
:1002200040912F0250913002609131027091320260
:1002300084179507A607B707B0F28FEF9FEF0895D1
:10024000FC01918D828D981731F0828DE80FF11DA0
:10025000858D90E008958FEF9FEF0895FC01918DBB
:10026000228D892F90E0805C9F4F821B91098F73B4
:10027000992708958BE292E00E942E0121E0892BBC
:1002800009F420E0822F089580E090E0892B29F086
:100290000E943A0181110C9400000895FC01A48D84
:1002A000A80FB92FB11DA35ABF4F2C91848D90E098
:1002B00001968F739927848FA689B7892C93A0897B
:1002C000B1898C91837080648C93938D848D981305
:1002D00006C00288F389E02D80818F7D8083089598
:1002E000EF92FF920F931F93CF93DF93EC0181E086
:1002F000888F9B8D8C8D98131AC0E889F98980812D
:1003000085FF15C09FB7F894EE89FF896083E8895F
:10031000F98980818370806480839FBF81E090E051
:10032000DF91CF911F910F91FF90EF900895F62EDE
:100330000B8D10E00F5F1F4F0F731127E02E8C8D78
:100340008E110CC00FB607FCFACFE889F9898081BD
:1003500085FFF5CFCE010E944E01F1CFEB8DEC0F62
:10036000FD2FF11DE35AFF4FF0829FB7F8940B8FDA
:10037000EA89FB8980818062CFCFCF93DF93EC0144
:10038000888D8823B9F0AA89BB89E889F9898C917D
:1003900085FD03C0808186FD0DC00FB607FCF7CF39
:1003A0008C9185FFF2CF808185FFEDCFCE010E9439
:1003B0004E01E9CFDF91CF910895833081F028F489
:1003C000813099F08230A9F008958730A9F0883003
:1003D000C9F08430B1F4809180008F7D03C080919A
:1003E00080008F7780938000089584B58F7784BDD7
:1003F000089584B58F7DFBCF8091B0008F77809377
:10040000B00008958091B0008F7DF9CFCF93DF9336
:10041000282F30E0F901E255FF4F8491F901E656AB
:10042000FF4FD491F901EA57FF4FC491CC23A1F0BB
:1004300081110E94DD01EC2FF0E0EE0FFF1FE45868
:10044000FF4FA591B491EC91ED2381E090E009F488
:1004500080E0DF91CF91089580E090E0FACF1F9384
:10046000CF93DF93282F30E0F901E255FF4F8491BD
:10047000F901E656FF4FD491F901EA57FF4FC491B5
:10048000CC23A9F0162F81110E94DD01EC2FF0E0A2
:10049000EE0FFF1FEE58FF4FA591B4918FB7F89460
:1004A000EC91111108C0D095DE23DC938FBFDF9152
:1004B000CF911F910895DE2BF8CFCF93DF9390E07B
:1004C000FC01E656FF4F24918A579F4FFC0184910F
:1004D0008823D1F090E0880F991FFC01E859FF4F65
:1004E000A591B491FC01EE58FF4FC591D4916111D3
:1004F0000EC09FB7F8948C91E22FE0958E238C93D9
:100500002881E223E8839FBFDF91CF9108958FB7C1
:10051000F894EC91E22BEC938FBFF6CF3FB7F894B1
:100520008091910190919201A0919301B0919401D9
:1005300026B5A89B05C02F3F19F00196A11DB11D3E
:100540003FBFBA2FA92F982F8827BC01CD01620F7A
:10055000711D811D911D42E0660F771F881F991F35
:100560004A95D1F708958F929F92AF92BF92CF9202
:10057000DF92EF92FF924B015C010E948E026B01B1
:100580007C010E948E026C197D098E099F09683ECC
:10059000734081059105A8F321E0821A9108A10812
:1005A000B10888EEC80E83E0D81EE11CF11C81144E
:1005B0009104A104B10429F7FF90EF90DF90CF9050
:1005C000BF90AF909F908F90089520916D01260F5E
:1005D0003327331F21323105ECF42091FD01FC015A
:1005E00090E080E0243069F082E00895A0916D01F0
:1005F0002191AC01435B5E4FA40FB52FB11D2C932D
:100600000196861798F380916D01680F60936D01D4
:1006100080E0089581E008951092FD0181E08093CB
:10062000FC011092D70161E082E10E942F0261E09B
:1006300083E10E942F02E9EBF0E080818E7F8083CE
:1006400080818D7F808388E48093B80085E48093E7
:10065000BC000895CF93DF9391E090934C018823E1
:10066000B9F0C091B800D091BA008091BC008A7BEB
:100670008093BC0060E082E10E942F0260E083E191
:100680000E942F020E940C03D093BA00C093B800BE
:10069000DF91CF9108958F929F92AF92BF92CF92A8
:1006A000DF92EF92FF920F931F93CF93DF93D0913E
:1006B0002602D13208F0D7C0182FC09125020E941F
:1006C0008E026B017C018091FD0181116BC082E083
:1006D0008093FD011093FC018FEF8093FB0110923A
:1006E000FA01D093F901A5E0B2E0E9EDF1E080E094
:1006F000D81391C01092D8018091D801CC0FC82B8B
:10070000C093D8018091D701813009F088C0109240
:10071000D7010E948E026B017C018091D8018093E9
:10072000BB008091FF0190910002A0910102B09165
:100730000202892B8A2B8B2BA1F00E948E02009142
:10074000FF011091000220910102309102026C1908
:100750007D098E099F09061717072807390708F42E
:1007600042C08091BC0083FDD8CF85EC8093BC0053
:100770000E948E026B017C018091FD01823009F4A0
:1007800050C08091FB018F3F09F46FC08091FB0145
:10079000803209F46CC08091FB01803309F469C098
:1007A00084E026C08091FF0190910002A091010297
:1007B000B0910202892B8A2B8B2B09F484CF0E94E3
:1007C0008E028090FF0190900002A0900102B090F4
:1007D00002026C197D098E099F0986169706A806E4
:1007E000B90608F070CF8091FE010E942A0385E0CF
:1007F000109204021092260210920302DF91CF9110
:100800001F910F91FF90EF90DF90CF90BF90AF902E
:100810009F908F9008959D9191938F5F69CF85EE02
:10082000A5CF8091FF0190910002A0910102B091AB
:100830000202892B8A2B8B2B09F49ECF0E948E02F9
:100840000091FF01109100022091010230910202FB
:100850006C197D098E099F090617170728073907A4
:1008600008F08ACFC0CF81E0C3CF80E0C1CF82E063
:10087000BFCF83E0BDCF0895E0919A0180919901A7
:10088000E81730F4F0E0E556FE4F808190E00895DF
:100890008FEF9FEF089590919A01809199012FEF2A
:1008A0003FEF981748F4E92FF0E0E556FE4F20811E
:1008B00030E09F5F90939A01C9010895809199015A
:1008C00090919A01891B990B0895CF92DF92EF9234
:1008D000FF920F931F93CF93DF937C01CB018A018B
:1008E00020910302222389F0EB016B01C40ED51E77
:1008F000CC15DD0569F06991D701ED91FC9101906E
:10090000F081E02DC7010995F3CF642F0E94E50225
:10091000C801DF91CF911F910F91FF90EF90DF9071
:10092000CF900895CF93DF931F92CDB7DEB7698341
:10093000209103022223F9F020912602203258F060
:1009400021E030E0FC013383228390E080E00F90CF
:10095000DF91CF91089580910402E82FF0E0EB5FE2
:10096000FD4F998190838F5F8093040280932602CC
:1009700081E090E0ECCF61E0CE0101960E94E502BB
:10098000F7CF90E080E008950F931F93CF93DF930C
:10099000082F162FD42F81E08093030288E68093DE
:1009A0002502109204021092260260E088EC92E088
:1009B0000E949204CAE0802F6C2F0E94030D829542
:1009C000807F682F690F88EC92E00E949204812F4B
:1009D0006C2F0E94030D8295807F682F690F88EC31
:1009E00092E00E9492048D2F6C2F0E94030D82953D
:1009F000807F682F690F88EC92E00E94920481E06A
:100A0000DF91CF911F910F910C944B030F931F9384
:100A1000CF93DF93EC0188819981009759F02A8167
:100A20003B812617370730F081E0DF91CF911F918E
:100A30000F9108958B016F5F7F4F0E94620E0097A8
:100A400059F0998388831B830A832C813D81232B52
:100A500059F7FC011082E8CF80E0E7CF85ED809365
:100A6000BC008091FF0190910002A0910102B09121
:100A700002020796A11DB11D23E0B695A795979593
:100A800087952A95D1F72091BC0024FD03C01092D0
:100A9000FD0108954091FF01509100026091010213
:100AA00070910202452B462B472B69F30097A10555
:100AB000B10541F025E32A95F1F700000197A1095E
:100AC000B109E1CF8091FE010C942A031F920F928D
:100AD0000FB60F9211242F933F934F935F936F9311
:100AE0007F938F939F93AF93BF93EF93FF938BE28B
:100AF00092E00E944E01FF91EF91BF91AF919F91C3
:100B00008F917F916F915F914F913F912F910F90B6
:100B10000FBE0F901F9018951F920F920FB60F9255
:100B200011242F938F939F93EF93FF93E0913B02B8
:100B3000F0913C028081E0914102F091420282FDFD
:100B40001BC09081809144028F5F8F73209145027A
:100B5000821741F0E0914402F0E0E55DFD4F958F92
:100B600080934402FF91EF919F918F912F910F906D
:100B70000FBE0F901F9018958081F4CF1F920F9297
:100B80000FB60F9211242F933F938F939F93AF93A0
:100B9000BF938091270290912802A0912902B091E1
:100BA0002A023091900123E0230F2D3758F501964A
:100BB000A11DB11D209390018093270290932802DC
:100BC000A0932902B0932A02809191019091920101
:100BD000A0919301B09194010196A11DB11D809344
:100BE000910190939201A0939301B0939401BF91CE
:100BF000AF919F918F913F912F910F900FBE0F90CA
:100C00001F90189526E8230F0296A11DB11DD2CF83
:100C10001F920F920FB60F9211242F933F934F9371
:100C20005F936F937F938F939F93AF93BF93EF9354
:100C3000FF938091B900887F803609F44AC0F0F5AF
:100C4000883209F4A7C018F5803109F49BC0B8F4C4
:100C5000882309F4F9C0883009F494C0FF91EF911A
:100C6000BF91AF919F918F917F916F915F914F91C4
:100C70003F912F910F900FBE0F901F9018958831C4
:100C800009F488C0803251F78093FB0114C080348E
:100C900009F49DC040F48033B9F38833F9F68093AA
:100CA000FB0185ECB0C0803509F485C0883509F4B6
:100CB00096C0883499F60E942E05D0CF883909F461
:100CC0008CC038F5883729F050F4883611F0803719
:100CD00029F683E08093FD0110928F0157C0883878
:100CE00009F47BC0803919F0803809F0B7CF8091C2
:100CF0008F01803208F071C0E0918F0181E08E0F8A
:100D000080938F018091BB00F0E0E159FE4F80831A
:100D10003DC0803B39F0E0F4803A09F479C0883A6C
:100D200009F09CCF84E08093FD0110926E01109237
:100D30006D01E0919701F0919801099580916D0105
:100D400081110FC081E080936D0110924D0109C0A7
:100D5000803C09F4A6CF883C09F4A3CF883B09F076
:100D60007DCFE0916E0181E08E0F80936E01F0E007
:100D7000E35BFE4F80818093BB0090916E01809178
:100D80006D0129C08091D8018093BB0085EC8093D0
:100D9000BC0064CF9091FA018091F901981758F541
:100DA000E091FA0181E08E0F8093FA01F0E0E752C2
:100DB000FE4F8081E9CFE091FA0181E08E0F8093B0
:100DC000FA018091BB00F0E0E752FE4F80839091E2
:100DD000FA018091F9019817C8F285E8D8CFE0911F
:100DE000FA0181E08E0F8093FA018091BB00F0E060
:100DF000E752FE4F80838091FC0181115CCF81E03E
:100E00008093D70184EA8093BC001092FD0126CF25
:100E100085EC8093BC001092FD0180918F0180329F
:100E200030F4E0918F01F0E0E159FE4F10826091C3
:100E30008F0170E0E0919501F09196018FE691E0CD
:100E4000099510928F010ACF1092FB0134CF1092B6
:100E50002E0210922D0288EE93E0A0E0B0E0809385
:100E60002F0290933002A0933102B09332022AE213
:100E700031E030932C0220932B0225EC30E03093AC
:100E800038022093370224EC30E030933A0220936A
:100E9000390220EC30E030933C0220933B0221ECFD
:100EA00030E030933E0220933D0222EC30E030935C
:100EB000400220933F0226EC30E030934202209320
:100EC0004102109244021092450210924602109282
:100ED00047021092CB021092CA028093CC029093E8
:100EE000CD02A093CE02B093CF028CE391E0909319
:100EF000C9028093C8021092D5021092D4021092B7
:100F0000D7021092D6021092D9021092D80270E045
:100F100060E084ED92E00E9406052091D4023091B9
:100F2000D502811113C02115310519F0C9010E94A4
:100F3000D90D1092D5021092D4021092D9021092BB
:100F4000D8021092D7021092D60208951092D902B8
:100F50001092D8026BE471E0C9010C94280FCF9372
:100F6000DF93CDB7DEB728970FB6F894DEBF0FBE7C
:100F7000CDBF789484B5826084BD84B5816084BD22
:100F800085B5826085BD85B5816085BD80916E0027
:100F9000816080936E001092810080918100826058
:100FA0008093810080918100816080938100809195
:100FB00080008160809380008091B1008460809384
:100FC000B1008091B00081608093B00080917A0080
:100FD000846080937A0080917A00826080937A00A6
:100FE00080917A00816080937A0080917A00806895
:100FF00080937A001092C10010929A011092990188
:1010000010920402109226020E940C038EE890E0D7
:1010100090939801809397018FE890E090939601C8
:101020008093950161E08AE00E945D0261E08BE0BF
:101030000E945D0261E08CE00E945D0261E08DE053
:101040000E945D02E0913B02F0913C0282E08083CD
:10105000E0913702F09138021082E0913902F0916C
:101060003A028FEC808310924302E0913F02F091AC
:10107000400286E08083E0913D02F0913E02808153
:1010800080618083E0913D02F0913E028081886022
:101090008083E0913D02F0913E02808180688083F0
:1010A000E0913D02F0913E0280818F7D80834CE093
:1010B00060E080E00E94C404992493942224239445
:1010C000312C9092030288E680932502109204024C
:1010D0001092260260E088EC92E00E94920481E087
:1010E0000E944B030E948E026B017C018091FD01E6
:1010F000811164C09092FD019092FC018FEF80936A
:10110000FB011092FA0182E08093F9019092D801DC
:101110008091D801806D8093D8018091D701813072
:1011200009F0E2C01092D7010E948E026B017C018F
:101130008091D8018093BB008091FF0190910002C3
:10114000A0910102B0910202892B8A2B8B2BA1F076
:101150000E948E024090FF015090000260900102B8
:10116000709002026C197D098E099F094616570678
:101170006806790608F443C08091BC0083FDD8CF8F
:1011800085EC8093BC000E948E026B017C018091F3
:10119000FD01813009F4AAC08091FA01833008F082
:1011A000C7C08091FA01A9EDB1E0EBE9F1E090E070
:1011B000981751F12D9121939F5FFACF8091FF01F4
:1011C00090910002A0910102B0910202892B8A2B1A
:1011D0008B2B09F48BCF0E948E024090FF01509020
:1011E000000260900102709002026C197D098E0964
:1011F0009F09461657066806790608F077CF809152
:10120000FE010E942A0380E010929A0180939901C6
:1012100088EC92E00E944B0488EC92E00E944B0420
:10122000982F92959F702AE0E22E8F70F82E9E9D47
:10123000F00C112488EC92E00E944B04982F9295B8
:1012400093708F709E9D800D11242F2D30E094E6B9
:10125000899F200D311D11243093D6012093D50193
:101260008BE292E00E942E01181619060CF0D1C0F4
:101270001A8219821C821B821E821D8270E060E02D
:10128000CE0101960E94060529813A81811152C042
:101290002115310519F0C9010E94D90D1A82198250
:1012A0001E821D821C821B820E94E00097FD4AC0A4
:1012B0008F831886ED80FE80EFEFEE1AFE0AB701ED
:1012C000CE0101960E940605882371F329813A8197
:1012D0008D819E81BE01695F7F4F820F931F0E94A7
:1012E000280FFE82ED82E0CF85EE4BCF8091FF018B
:1012F00090910002A0910102B0910202892B8A2BE9
:101300008B2B09F444CF0E948E024090FF01509035
:10131000000260900102709002026C197D098E0932
:101320009F09461657066806790608F030CF67CF42
:1013300083E039CF1E821D826BE471E0C9010E94F7
:10134000280FB2CF8091D4029091D502009709F472
:10135000C0C069817A816115710509F4B8C04091F6
:10136000D6025091D7022D813E814217530708F4CF
:10137000AEC00E94280F8D819E819093D9028093E8
:10138000D8021E821D8289819A81009711F00E94E5
:10139000D90D8091D4029091D5029093D40180937D
:1013A000D3016AE471E00E942D0C0E940F0C7C01B5
:1013B0006AE471E090E080E0F7E0EF16F10409F0F4
:1013C0009FC00E942D0C0E940F0CF82E6AE471E061
:1013D00090E080E00E942D0C0E940F0CE82E6AE441
:1013E00071E090E080E00E942D0C0E940F0CD82E3E
:1013F0006AE471E090E080E00E942D0C4D2D6E2D8E
:101400008F2D0E94C4042BE431E03093D40120934B
:10141000D30119821A821B821C821D8261E087E03F
:101420000E945D0260E087E00E942F0262E170E0AE
:1014300080E090E00E94B30261E087E00E942F020A
:101440008BE990E00197F1F760E087E00E945D0290
:10145000A1E1EA2EA7E2FA2E87E00E940602892B7C
:1014600009F080C031E0E31AF108B1F76091BD01E5
:101470007091BE01072E000C880B990B0E94680C1E
:101480002B013C014092C7015092C8016092C901F2
:101490007092CA0180E0E82E81E0F82E9BECC92E04
:1014A00091E0D92E2FEBA22E21E0B22E3AE0832E2E
:1014B000F70180819181009709F0BBC011E000E045
:1014C00082819381019709F4C9C010E0C7C00E94CE
:1014D000D90D89819A819093D5028093D4028B8112
:1014E0009C819093D7028093D6028D819E819093A8
:1014F000D9028093D8021A8219821C821B8241CFA2
:101500000E942D0C0E940F0CB3E0EE0CFF1CBA954C
:10151000E1F7970120503F4F7901F90191838083D2
:101520006AE471E090E080E00E942D0C0E940F0CB4
:10153000F701938382836AE471E090E080E00E9487
:101540002D0C0E940F0CF701958384836AE471E0EF
:1015500090E080E00E942D0C0E940F0CF701978311
:10156000868351CFF1E1EF2EF7E2FF2E87E00E9454
:101570000602019729F481E0E81AF108B9F776CF5D
:1015800078E2C72ED12CE7E0FE2EE12C61E1A62EF9
:1015900067E2B62E87E00E940602892B29F491E0CB
:1015A000A91AB108B9F762CF0E948E022B013C0143
:1015B00051E1A52E57E2B52E87E00E940602019761
:1015C00029F4E1E0AE1AB108B9F750CF0E948E02BB
:1015D00064197509860997096932710581059105B4
:1015E00078F0E1E0F0E0EC0FFD1FEE0DF11D8081E1
:1015F00091010F2C01C0220F0A94EAF7822B8083FD
:10160000F11015C0E39447E0F42EF1E0CF1AD108B1
:1016100009F0BCCF898190E09093BC018093BB011D
:101620008B8190E09093BE018093BD011FCFFA940F
:10163000ECCF81309105C9F58091D5019091D6010B
:1016400022813381821793070CF478C011E000E007
:1016500024813581821793070CF037CFF601108370
:101660000183612F882D0E942F02F8E0EF0EF11CFC
:1016700022E0C20ED11C839432E0A30EB11C8EE096
:10168000881216CF68EE73E080E090E00E94B3020B
:10169000E0E0F0E0EF2B09F414CD0E943A0188233A
:1016A00009F40FCD0E9400000CCD8230910559F550
:1016B00062817381072E000C880B990B0E94680CC5
:1016C0009B01AC01C301B2010E94FE0C18160CF480
:1016D0009AC0F70164817581072E000C880B990B65
:1016E0000E94680C9B01AC01C301B2010E94610C15
:1016F00087FD24C011E000E0F60180819181892BF3
:1017000009F0ACCFE2CE83309105D1F48091D501C0
:101710009091D601228133818217930734F024817E
:101720003581281739070CF06EC0F701118210823D
:1017300013821282158214821782168210E064C00E
:1017400084309105D1F58091D5019091D60164E660
:1017500070E00E940F0D428153814115510551F4F3
:1017600024813581821793074CF311E000E0268134
:10177000378170CFF501208131814217530719F469
:1017800011821082D2CF24173507C4F6F7014481A5
:101790005581841795072CF046815781841795074A
:1017A00094F1F60180819181019709F057CF2F5F65
:1017B0003F4FF50131832083C1CF059709F04ECF0C
:1017C00062817381072E000C880B990B0E94680CB4
:1017D0009B01AC01C301B2010E94610C87FD13C0E3
:1017E000F70164817581072E000C880B990B0E940C
:1017F000680C9B01AC01C301B2010E94FE0C1816DB
:101800000CF078CF9BCF11E000E028CF8091D4027C
:101810009091D502009711F00C94D90D0895FC0118
:1018200088279927E89421912032E9F3293010F094
:101830002E30C8F32B3241F02D3239F4689404C0B5
:101840000E94590C820F911D219120532A30C0F320
:101850001EF4909581959F4F08954AED52E00E94A5
:10186000320C0895FA01A191B081009719F41097F4
:10187000E1F0CD01DC01CD010D90002011F4C0019B
:1018800013C0FB012191222319F02015D9F7F3CFC2
:10189000FB012191201519F41E92119606C02223F6
:1018A000C1F70D900020A1F7D001FA01A193B083F8
:1018B00008957AE0979F902D879F802D910D112498
:1018C00008950E94A30C08F481E00895E89409C0EB
:1018D00097FB3EF490958095709561957F4F8F4F63
:1018E0009F4F9923A9F0F92F96E9BB279395F69579
:1018F000879577956795B795F111F8CFFAF4BB0FF7
:1019000011F460FF1BC06F5F7F4F8F4F9F4F16C05A
:10191000882311F096E911C0772321F09EE8872FE4
:10192000762F05C0662371F096E8862F70E060E0A0
:101930002AF09A95660F771F881FDAF7880F969519
:10194000879597F90895990F0008550FAA0BE0E8BD
:10195000FEEF16161706E807F907C0F01216130671
:10196000E407F50798F0621B730B840B950B39F4B1
:101970000A2661F0232B242B252B21F408950A2617
:1019800009F4A140A6958FEF811D811D08952F9226
:101990003F924F925F926F927F928F929F92AF92FF
:1019A000BF92CF92DF92EF92FF920F931F93CF934C
:1019B000DF93CDB7DEB7CA1BDB0B0FB6F894DEBFE3
:1019C0000FBECDBF09942A88398848885F846E8409
:1019D0007D848C849B84AA84B984C884DF80EE8053
:1019E000FD800C811B81AA81B981CE0FD11D0FB65C
:1019F000F894DEBF0FBECDBFED0108950E94A30C89
:101A000008F48FEF0895991B79E004C0991F961789
:101A100008F0961B881F7A95C9F78095089597FB63
:101A2000072E16F4009407D077FD09D00E94230DED
:101A300007FC05D03EF4909581959F4F08957095D1
:101A400061957F4F0895AA1BBB1B51E107C0AA1FD8
:101A5000BB1FA617B70710F0A61BB70B881F991F4F
:101A60005A95A9F780959095BC01CD010895EE0F88
:101A7000FF1F0590F491E02D09940F931F93CF93CE
:101A8000DF938230910510F482E090E0E091DE0275
:101A9000F091DF0230E020E0B0E0A0E0309799F470
:101AA0002115310509F44AC0281B390B24303105B2
:101AB000D8F58A819B816115710589F1FB019383BA
:101AC0008283FE0111C04081518102811381481738
:101AD0005907E0F04817590799F4109761F01296EA
:101AE0000C93129713961C933296CF01DF91CF91EE
:101AF0001F910F9108950093DE021093DF02F4CF3F
:101B00002115310551F04217530738F0A901DB01C7
:101B10009A01BD01DF01F801C1CFEF01F9CF909328
:101B2000DF028093DE02CDCFFE01E20FF31F81932F
:101B300091932250310939832883D7CF2091DC0239
:101B40003091DD02232B41F42091220130912301B9
:101B50003093DD022093DC0220912001309121019D
:101B60002115310541F42DB73EB740912401509124
:101B70002501241B350BE091DC02F091DD02E21718
:101B8000F307A0F42E1B3F0B2817390778F0AC01A0
:101B90004E5F5F4F2417350748F04E0F5F1F50937D
:101BA000DD024093DC02819391939FCFF0E0E0E06F
:101BB0009CCFCF93DF930097E9F0FC01329713821B
:101BC0001282A091DE02B091DF02ED0130E020E050
:101BD0001097A1F420813181820F931F2091DC02A4
:101BE0003091DD022817390709F061C0F093DD025A
:101BF000E093DC02DF91CF910895EA01CE17DF0771
:101C0000E8F54A815B819E0141155105B1F7E90173
:101C1000FB83EA8349915991C40FD51FEC17FD0747
:101C200061F4808191810296840F951FE901998367
:101C30008883828193819B838A83F0E0E0E012961F
:101C40008D919C9113970097B9F52D913C91119727
:101C5000CD010296820F931F2091DC023091DD02AC
:101C60002817390739F6309751F51092DF02109294
:101C7000DE02B093DD02A093DC02BCCFD383C2832B
:101C800040815181840F951FC817D90761F44E5FB9
:101C90005F4F88819981480F591F518340838A8102
:101CA0009B81938382832115310509F0B0CFF09396
:101CB000DF02E093DE029ECFFD01DC01C0CF138284
:101CC0001282D7CFB0E0A0E0E8E6FEE00C94C90CA9
:101CD0008C01009751F4CB010E943D0D8C01C8018D
:101CE000CDB7DEB7E0E10C94E50CFC01E60FF71F81
:101CF0009C0122503109E217F30708F49DC0D90175
:101D0000CD91DC911197C617D70798F0C530D10552
:101D100030F3CE0104978617970708F3C61BD70B3D
:101D20002297C193D1936D937C93CF010E94D90DDB
:101D3000D6CF5B01AC1ABD0A4C018C0E9D1EA09142
:101D4000DE02B091DF02512C412CF12CE12C1097D6
:101D500031F58091DC029091DD028815990509F03A
:101D60005CC04616570608F058C08091200190913B
:101D70002101009741F48DB79EB740912401509105
:101D80002501841B950BE817F90708F055C0F0935F
:101D9000DD02E093DC02F90171836083A0CF8D91B5
:101DA0009C91119712966C90129713967C901397B2
:101DB000A815B90559F56C0142E0C40ED11CCA142E
:101DC000DB0420F1AC014A195B09DA011296159780
:101DD00080F06282738251834083D9016D937C933A
:101DE000E114F10471F0D7011396FC93EE9312976E
:101DF00076CF22968C0F9D1FF90191838083F3018A
:101E0000EFCFF093DF02E093DE0269CF4816590668
:101E100008F42C017D01D3019ACFCB010E943D0D26
:101E20007C01009749F0AE01B8010E941F0FC80164
:101E30000E94D90D870153CF10E000E050CFFB0185
:101E4000DC0102C001900D9241505040D8F7089536
:101E5000FB01DC0101900D920020E1F7089510E0F4
:101E6000C2E6D0E004C0FE010E94370D2196C336C1
:101E7000D107C9F7F894FFCF00000100000000006F
:101E80000000010000000000000001000000000050
:101E900005000E00190000000000E00280000000B4
:101EA000000070019000BD00BD012E01CC0020019A
:101EB0000000000092046504C1043B045E044B046E
:041EC0003C042C00B2
:107E0000112484B714BE81FFF0D085E080938100F7
:107E100082E08093C00088E18093C10086E0809377
:107E2000C20080E18093C4008EE0C9D0259A86E02C
:107E300020E33CEF91E0309385002093840096BBD3
:107E4000B09BFECF1D9AA8958150A9F7CC24DD24C4
:107E500088248394B5E0AB2EA1E19A2EF3E0BF2EE7
:107E6000A2D0813461F49FD0082FAFD0023811F036
:107E7000013811F484E001C083E08DD089C08234E0
:107E800011F484E103C0853419F485E0A6D080C0E4
:107E9000853579F488D0E82EFF2485D0082F10E0AE
:107EA000102F00270E291F29000F111F8ED06801E7
:107EB0006FC0863521F484E090D080E0DECF843638
:107EC00009F040C070D06FD0082F6DD080E0C81688
:107ED00080E7D80618F4F601B7BEE895C0E0D1E017
:107EE00062D089930C17E1F7F0E0CF16F0E7DF06D8
:107EF00018F0F601B7BEE89568D007B600FCFDCFD4
:107F0000A601A0E0B1E02C9130E011968C91119780
:107F100090E0982F8827822B932B1296FA010C0160
:107F200087BEE89511244E5F5F4FF1E0A038BF0790
:107F300051F7F601A7BEE89507B600FCFDCF97BE46
:107F4000E89526C08437B1F42ED02DD0F82E2BD052
:107F50003CD0F601EF2C8F010F5F1F4F84911BD097
:107F6000EA94F801C1F70894C11CD11CFA94CF0C13
:107F7000D11C0EC0853739F428D08EE10CD085E9AC
:107F80000AD08FE07ACF813511F488E018D01DD067
:107F900080E101D065CF982F8091C00085FFFCCF94
:107FA0009093C60008958091C00087FFFCCF809118
:107FB000C00084FD01C0A8958091C6000895E0E648
:107FC000F0E098E1908380830895EDDF803219F02E
:107FD00088E0F5DFFFCF84E1DECF1F93182FE3DFCA
:107FE0001150E9F7F2DF1F91089580E0E8DFEE27F6
:047FF000FF270994CA
:027FFE00040479
:00000001FF
