:100000000C9463000C948B000C948B000C948B006C
:100010000C948B000C948B000C948B000C948B0034
:100020000C948B000C948B000C948B000C948B0024
:100030000C948B000C948B000C948B000C948B0014
:100040000C94BE050C948B000C948C050C946605E6
:100050000C948B000C948B000C948B000C948B00F4
:100060000C9408060C948B0000000000240027006C
:100070002A0000000000250028002B0000000000DE
:1000800023002600290004040404040404040202DA
:100090000202020203030303030301020408102007
:1000A0004080010204081020010204081020000012
:1000B0000008000201000003040700000000000027
:1000C00000002707610C11241FBECFEFD8E0DEBF70
:1000D000CDBF22E0ACE4B1E001C01D92A43EB20766
:1000E000E1F711E0A0E0B1E0EEE2FFE102C005902F
:1000F0000D92AC34B107D9F710E0C2E6D0E004C0ED
:100100002197FE010E94920DC136D107C9F70E94C6
:10011000AF070C948A0F0C94000008950895089579
:10012000AF92BF92CF92DF92EF92FF920F931F9305
:10013000CF93DF936C017B018B01040F151FEB0143
:100140005E01AE18BF08C017D10759F06991D601FA
:10015000ED91FC910190F081E02DC6010995892B6C
:1001600079F7C501DF91CF911F910F91FF90EF902B
:10017000DF90CF90BF90AF900895FC01538D448DD8
:10018000252F30E0842F90E0821B930B541710F042
:10019000CF96089501970895FC01918D828D98174F
:1001A00061F0A28DAE0FBF2FB11D5D968C91928D27
:1001B0009F5F9F73928F90E008958FEF9FEF089558
:1001C0002FB7F89480912B0290912C02A0912D02D0
:1001D000B0912E022FBF8093370290933802A093E4
:1001E0003902B0933A028FE292E00E94CC0097FF6E
:1001F00026C02FB7F89480912B0290912C02A091E9
:100200002D02B0912E022FBF40913702509138023B
:100210006091390270913A02841B950BA60BB70BC3
:100220004091330250913402609135027091360250
:1002300084179507A607B707B0F28FEF9FEF0895D1
:10024000FC01918D828D981731F0828DE80FF11DA0
:10025000858D90E008958FEF9FEF0895FC01918DBB
:10026000228D892F90E0805C9F4F821B91098F73B4
:10027000992708958FE292E00E942E0121E0892BB8
:1002800009F420E0822F089580E090E0892B29F086
:100290000E943A0181110C9400000895FC01A48D84
:1002A000A80FB92FB11DA35ABF4F2C91848D90E098
:1002B00001968F739927848FA689B7892C93A0897B
:1002C000B1898C91837080648C93938D848D981305
:1002D00006C00288F389E02D80818F7D8083089598
:1002E000EF92FF920F931F93CF93DF93EC0181E086
:1002F000888F9B8D8C8D98131AC0E889F98980812D
:1003000085FF15C09FB7F894EE89FF896083E8895F
:10031000F98980818370806480839FBF81E090E051
:10032000DF91CF911F910F91FF90EF900895F62EDE
:100330000B8D10E00F5F1F4F0F731127E02E8C8D78
:100340008E110CC00FB607FCFACFE889F9898081BD
:1003500085FFF5CFCE010E944E01F1CFEB8DEC0F62
:10036000FD2FF11DE35AFF4FF0829FB7F8940B8FDA
:10037000EA89FB8980818062CFCFCF93DF93EC0144
:10038000888D8823B9F0AA89BB89E889F9898C917D
:1003900085FD03C0808186FD0DC00FB607FCF7CF39
:1003A0008C9185FFF2CF808185FFEDCFCE010E9439
:1003B0004E01E9CFDF91CF910895833081F028F489
:1003C000813099F08230A9F008958730A9F0883003
:1003D000C9F08430B1F4809180008F7D03C080919A
:1003E00080008F7780938000089584B58F7784BDD7
:1003F000089584B58F7DFBCF8091B0008F77809377
:10040000B00008958091B0008F7DF9CFCF93DF9336
:10041000282F30E0F901E255FF4F8491F901E656AB
:10042000FF4FD491F901EA57FF4FC491CC23A1F0BB
:1004300081110E94DD01EC2FF0E0EE0FFF1FE45868
:10044000FF4FA591B491EC91ED2381E090E009F488
:1004500080E0DF91CF91089580E090E0FACF1F9384
:10046000CF93DF93282F30E0F901E255FF4F8491BD
:10047000F901E656FF4FD491F901EA57FF4FC491B5
:10048000CC23A9F0162F81110E94DD01EC2FF0E0A2
:10049000EE0FFF1FEE58FF4FA591B4918FB7F89460
:1004A000EC91111108C0D095DE23DC938FBFDF9152
:1004B000CF911F910895DE2BF8CFCF93DF9390E07B
:1004C000FC01E656FF4F24918A579F4FFC0184910F
:1004D0008823D1F090E0880F991FFC01E859FF4F65
:1004E000A591B491FC01EE58FF4FC591D4916111D3
:1004F0000EC09FB7F8948C91E22FE0958E238C93D9
:100500002881E223E8839FBFDF91CF9108958FB7C1
:10051000F894EC91E22BEC938FBFF6CF3FB7F894B1
:100520008091910190919201A0919301B0919401D9
:1005300026B5A89B05C02F3F19F00196A11DB11D3E
:100540003FBFBA2FA92F982F8827BC01CD01620F7A
:10055000711D811D911D42E0660F771F881F991F35
:100560004A95D1F708958F929F92AF92BF92CF9202
:10057000DF92EF92FF924B015C010E948E026B01B1
:100580007C010E948E026C197D098E099F09683ECC
:10059000734081059105A8F321E0821A9108A10812
:1005A000B10888EEC80E83E0D81EE11CF11C81144E
:1005B0009104A104B10429F7FF90EF90DF90CF9050
:1005C000BF90AF909F908F90089520916D01260F5E
:1005D0003327331F21323105ECF420910102FC0155
:1005E00090E080E0243069F082E00895A0916D01F0
:1005F0002191AC01435B5E4FA40FB52FB11D2C932D
:100600000196861798F380916D01680F60936D01D4
:1006100080E0089581E008951092010281E08093C6
:1006200000021092DB0161E082E10E942F0261E092
:1006300083E10E942F02E9EBF0E080818E7F8083CE
:1006400080818D7F808388E48093B80085E48093E7
:10065000BC000895CF93DF9391E090934C018823E1
:10066000B9F0C091B800D091BA008091BC008A7BEB
:100670008093BC0060E082E10E942F0260E083E191
:100680000E942F020E940C03D093BA00C093B800BE
:10069000DF91CF9108958F929F92AF92BF92CF92A8
:1006A000DF92EF92FF920F931F93CF93DF93D0913E
:1006B0002A02D13208F0D7C0182FC09129020E9417
:1006C0008E026B017C018091010281116BC082E07E
:1006D00080930102109300028FEF8093FF0110922C
:1006E000FE01D093FD01A9E0B2E0EDEDF1E080E084
:1006F000D81391C01092DC018091DC01CC0FC82B83
:10070000C093DC018091DB01813009F088C0109238
:10071000DB010E948E026B017C018091DC018093E1
:10072000BB008091030290910402A0910502B09158
:100730000602892B8A2B8B2BA1F00E948E0200913E
:1007400003021091040220910502309106026C19F7
:100750007D098E099F09061717072807390708F42E
:1007600042C08091BC0083FDD8CF85EC8093BC0053
:100770000E948E026B017C0180910102823009F49B
:1007800050C08091FF018F3F09F46FC08091FF013D
:10079000803209F46CC08091FF01803309F469C094
:1007A00084E026C08091030290910402A09105028A
:1007B000B0910602892B8A2B8B2B09F484CF0E94DF
:1007C0008E028090030290900402A0900502B090E7
:1007D00006026C197D098E099F0986169706A806E0
:1007E000B90608F070CF809102020E942A0385E0CA
:1007F0001092080210922A0210920702DF91CF9104
:100800001F910F91FF90EF90DF90CF90BF90AF902E
:100810009F908F9008959D9191938F5F69CF85EE02
:10082000A5CF8091030290910402A0910502B0919E
:100830000602892B8A2B8B2B09F49ECF0E948E02F5
:1008400000910302109104022091050230910602EA
:100850006C197D098E099F090617170728073907A4
:1008600008F08ACFC0CF81E0C3CF80E0C1CF82E063
:10087000BFCF83E0BDCF0895E0919A0180919901A7
:10088000E81730F4F0E0E556FE4F808190E00895DF
:100890008FEF9FEF089590919A01809199012FEF2A
:1008A0003FEF981748F4E92FF0E0E556FE4F20811E
:1008B00030E09F5F90939A01C9010895809199015A
:1008C00090919A01891B990B0895CF92DF92EF9234
:1008D000FF920F931F93CF93DF937C01CB018A018B
:1008E00020910702222389F0EB016B01C40ED51E73
:1008F000CC15DD0569F06991D701ED91FC9101906E
:10090000F081E02DC7010995F3CF642F0E94E50225
:10091000C801DF91CF911F910F91FF90EF90DF9071
:10092000CF900895CF93DF931F92CDB7DEB7698341
:10093000209107022223F9F020912A02203258F058
:1009400021E030E0FC013383228390E080E00F90CF
:10095000DF91CF91089580910802E82FF0E0E75FE2
:10096000FD4F998190838F5F8093080280932A02C4
:1009700081E090E0ECCF61E0CE0101960E94E502BB
:10098000F7CF90E080E008950F931F93CF93DF930C
:10099000082F162FD42F81E08093070288E68093DA
:1009A00029021092080210922A0260E08CEC92E078
:1009B0000E949204CAE0802F6C2F0E945E0D8295E7
:1009C000807F682F690F8CEC92E00E949204812F47
:1009D0006C2F0E945E0D8295807F682F690F8CECD2
:1009E00092E00E9492048D2F6C2F0E945E0D8295E2
:1009F000807F682F690F8CEC92E00E94920481E066
:100A0000DF91CF911F910F910C944B030F931F9384
:100A1000CF93DF93EC0188819981009759F02A8167
:100A20003B812617370730F081E0DF91CF911F918E
:100A30000F9108958B016F5F7F4F0E94BD0E00974D
:100A400059F0998388831B830A832C813D81232B52
:100A500059F7FC011082E8CF80E0E7CF85ED809365
:100A6000BC008091030290910402A0910502B09114
:100A700006020796A11DB11D23E0B695A79597958F
:100A800087952A95D1F72091BC0024FD03C01092D0
:100A90000102089540910302509104026091050201
:100AA00070910602452B462B472B69F30097A10551
:100AB000B10541F025E32A95F1F700000197A1095E
:100AC000B109E1CF809102020C942A031F920F9288
:100AD0000FB60F9211242F933F934F935F936F9311
:100AE0007F938F939F93AF93BF93EF93FF938FE287
:100AF00092E00E944E01FF91EF91BF91AF919F91C3
:100B00008F917F916F915F914F913F912F910F90B6
:100B10000FBE0F901F9018951F920F920FB60F9255
:100B200011242F938F939F93EF93FF93E0913F02B4
:100B3000F09140028081E0914502F091460282FDF1
:100B40001BC09081809148028F5F8F732091490272
:100B5000821741F0E0914802F0E0E15DFD4F958F92
:100B600080934802FF91EF919F918F912F910F9069
:100B70000FBE0F901F9018958081F4CF1F920F9297
:100B80000FB60F9211242F933F938F939F93AF93A0
:100B9000BF9380912B0290912C02A0912D02B091D5
:100BA0002E023091900123E0230F2D3758F5019646
:100BB000A11DB11D2093900180932B0290932C02D4
:100BC000A0932D02B0932E028091910190919201F9
:100BD000A0919301B09194010196A11DB11D809344
:100BE000910190939201A0939301B0939401BF91CE
:100BF000AF919F918F913F912F910F900FBE0F90CA
:100C00001F90189526E8230F0296A11DB11DD2CF83
:100C10001F920F920FB60F9211242F933F934F9371
:100C20005F936F937F938F939F93AF93BF93EF9354
:100C3000FF938091B900887F803609F44AC0F0F5AF
:100C4000883209F4A7C018F5803109F49BC0B8F4C4
:100C5000882309F4F9C0883009F494C0FF91EF911A
:100C6000BF91AF919F918F917F916F915F914F91C4
:100C70003F912F910F900FBE0F901F9018958831C4
:100C800009F488C0803251F78093FF0114C080348A
:100C900009F49DC040F48033B9F38833F9F68093AA
:100CA000FF0185ECB0C0803509F485C0883509F4B2
:100CB00096C0883499F60E942E05D0CF883909F461
:100CC0008CC038F5883729F050F4883611F0803719
:100CD00029F683E08093010210928F0157C0883873
:100CE00009F47BC0803919F0803809F0B7CF8091C2
:100CF0008F01803208F071C0E0918F0181E08E0F8A
:100D000080938F018091BB00F0E0E159FE4F80831A
:100D10003DC0803B39F0E0F4803A09F479C0883A6C
:100D200009F09CCF84E08093010210926E01109232
:100D30006D01E0919701F0919801099580916D0105
:100D400081110FC081E080936D0110924D0109C0A7
:100D5000803C09F4A6CF883C09F4A3CF883B09F076
:100D60007DCFE0916E0181E08E0F80936E01F0E007
:100D7000E35BFE4F80818093BB0090916E01809178
:100D80006D0129C08091DC018093BB0085EC8093CC
:100D9000BC0064CF9091FE018091FD01981758F539
:100DA000E091FE0181E08E0F8093FE01F0E0E352BE
:100DB000FE4F8081E9CFE091FE0181E08E0F8093AC
:100DC000FE018091BB00F0E0E352FE4F80839091E2
:100DD000FE018091FD019817C8F285E8D8CFE09117
:100DE000FE0181E08E0F8093FE018091BB00F0E058
:100DF000E352FE4F80838091000281115CCF81E03D
:100E00008093DB0184EA8093BC001092010226CF1C
:100E100085EC8093BC001092010280918F0180329A
:100E200030F4E0918F01F0E0E159FE4F10826091C3
:100E30008F0170E0E0919501F09196018FE691E0CD
:100E4000099510928F010ACF1092FF0134CF1092B2
:100E500032021092310288EE93E0A0E0B0E080937D
:100E6000330290933402A0933502B09336022AE203
:100E700031E03093300220932F0225EC30E03093A4
:100E80003C0220933B0224EC30E030933E0220935E
:100E90003D0220EC30E03093400220933F0221ECF1
:100EA00030E0309342022093410222EC30E0309354
:100EB00044022093430226EC30E030934602209314
:100EC0004502109248021092490210924A02109272
:100ED0004B021092CF021092CE028093D0029093D8
:100EE000D102A093D202B093D3028CE391E090930D
:100EF000CD028093CC021092D9021092D8021092A7
:100F0000DB021092DA021092DD021092DC0270E035
:100F100060E088ED92E00E9406052091D8023091B1
:100F2000D902811113C02115310519F0C9010E94A0
:100F3000340E1092D9021092D8021092DD02109253
:100F4000DC021092DB021092DA0208951092DD02A8
:100F50001092DC026BE471E0C9010C94830FCF9313
:100F6000DF93CDB7DEB72D970FB6F894DEBF0FBE77
:100F7000CDBF789484B5826084BD84B5816084BD22
:100F800085B5826085BD85B5816085BD80916E0027
:100F9000816080936E001092810080918100826058
:100FA0008093810080918100816080938100809195
:100FB00080008160809380008091B1008460809384
:100FC000B1008091B00081608093B00080917A0080
:100FD000846080937A0080917A00826080937A00A6
:100FE00080917A00816080937A0080917A00806895
:100FF00080937A001092C10010929A011092990188
:101000001092080210922A020E940C038EE890E0CF
:1010100090939801809397018FE890E090939601C8
:101020008093950161E08AE00E945D0261E08BE0BF
:101030000E945D0261E08CE00E945D0261E08DE053
:101040000E945D02E0913F02F091400282E08083C5
:10105000E0913B02F0913C021082E0913D02F09160
:101060003E028FEC808310924702E0914302F091A0
:10107000440286E08083E0914102F0914202808147
:1010800080618083E0914102F0914202808188601A
:101090008083E0914102F0914202808180688083E8
:1010A000E0914102F091420280818F7D80834CE08B
:1010B00060E080E00E94C40421E02093070288E6FB
:1010C000809329021092080210922A0260E08CECB0
:1010D00092E00E94920481E00E944B030E948E02E3
:1010E0006B017C0180910102811165C031E0309378
:1010F0000102309300028FEF8093FF011092FE01F6
:1011000082E08093FD013093DC018091DC01806DF1
:101110008093DC018091DB01813009F0E2C0109204
:10112000DB010E948E026B017C018091DC018093C7
:10113000BB008091030290910402A0910502B0913E
:101140000602892B8A2B8B2BA1F00E948E028090A5
:10115000030290900402A0900502B09006026C1960
:101160007D098E099F0986169706A806B90608F418
:1011700043C08091BC0083FDD8CF85EC8093BC0038
:101180000E948E026B017C0180910102813009F482
:10119000AAC08091FE01833008F0C7C08091FE0193
:1011A000ADEDB1E0EBE9F1E090E0981751F12D9150
:1011B00021939F5FFACF8091030290910402A09146
:1011C0000502B0910602892B8A2B8B2B09F48ACF5A
:1011D0000E948E028090030290900402A09005026B
:1011E000B09006026C197D098E099F098616970634
:1011F000A806B90608F076CF809102020E942A0361
:1012000080E010929A01809399018CEC92E00E9408
:101210004B048CEC92E00E944B04982F92959F70A7
:10122000BAE0EB2E8F70F82E9E9DF00C11248CEC02
:1012300092E00E944B04982F929593708F709E9D20
:10124000800D11242F2D30E094E6899F200D311D53
:1012500011243093DA012093D9018FE292E00E94A9
:101260002E01181619060CF0D1C01A8219821C82A0
:101270001B821E821D8270E060E0CE0101960E94FA
:10128000060529813A81811152C02115310519F0D5
:10129000C9010E94340E1A8219821E821D821C828C
:1012A0001B820E94E00097FD4AC08F831886ED8064
:1012B000FE80EFEFEE1AFE0AB701CE0101960E9402
:1012C0000605882371F329813A818D819E81BE01B3
:1012D000695F7F4F820F931F0E94830FFE82ED8212
:1012E000E0CF85EE4BCF8091030290910402A09154
:1012F0000502B0910602892B8A2B8B2B09F444CF6F
:101300000E948E028090030290900402A090050239
:10131000B09006026C197D098E099F098616970602
:10132000A806B90608F030CF67CF83E039CF1E8218
:101330001D826BE471E0C9010E94830FB2CF8091DE
:10134000D8029091D902009709F4D4C069817A81BA
:101350006115710509F4CCC04091DA025091DB02AD
:101360002D813E814217530708F4C2C00E94830FAB
:101370008D819E819093DD028093DC021E821D820E
:1013800089819A81009711F00E94340E8091D802D1
:101390009091D9029093D8018093D7016AE471E0CB
:1013A0000E94880C0E946A0C7C016AE471E090E063
:1013B00080E0F7E0EF16F10409F0B3C00E94880C5A
:1013C0000E946A0CF82E6AE471E090E080E00E94CE
:1013D000880C0E946A0CE82E6AE471E090E080E0DC
:1013E0000E94880C0E946A0CD82E6AE471E090E09A
:1013F00080E00E94880C4D2D6E2D8F2D0E94C4041C
:101400002BE431E03093D8012093D70119821A825E
:101410001B821C821D8261E087E00E945D0260E009
:1014200087E00E942F0262E170E080E090E00E947D
:10143000B30261E087E00E942F028BE990E0019700
:10144000F1F760E087E00E945D02F1E1EF2EF7E244
:10145000FF2E87E00E940602892B09F094C031E03C
:10146000E31AF108B1F76091BB017091BC01072E3E
:10147000000C880B990B0E94C30C1B012C012092BD
:10148000BF013092C0014092C1015092C2016091EF
:10149000BD017091BE01072E000C880B990B0E94B4
:1014A000C30C4B015C018092CB019092CC01A092C5
:1014B000CD01B092CE0190E0E92E91E0F92E2FEC13
:1014C000622E21E0722E23EC31E03A8729873AE040
:1014D0003B87F70180819181009709F0BCC011E042
:1014E00000E082819381019709F4CAC010E0C8C06E
:1014F0000E94340E89819A819093D9028093D802F8
:101500008B819C819093DB028093DA028D819E8196
:101510009093DD028093DC021A8219821C821B8266
:101520002DCF0E94880C0E946A0CA3E0EE0CFF1CD9
:10153000AA95E1F7970120503F4F7901F901918376
:1015400080836AE471E090E080E00E94880C0E9451
:101550006A0CF701938382836AE471E090E080E093
:101560000E94880C0E946A0CF701958384836AE4C8
:1015700071E090E080E00E94880C0E946A0CF70104
:10158000978386833DCFE1E1EE2EE7E2FE2E87E0F2
:101590000E940602019729F481E0E81AF108B9F7E0
:1015A00062CF68E2C62ED12C77E0F72EE12C51E114
:1015B000A52E57E2B52E87E00E940602892B29F45A
:1015C00091E0A91AB108B9F74ECF0E948E022B0103
:1015D0003C0141E1A42E47E2B42E87E00E940602BE
:1015E000019729F4E1E0AE1AB108B9F73CCF0E94A7
:1015F0008E0264197509860997096932710581059A
:10160000910580F0E1E0F0E0EC0FFD1FEE0DF11D23
:10161000808121E030E00F2C01C0220F0A94EAF70C
:10162000822B8083F11015C0E39437E0F32EF1E0B4
:10163000CF1AD10809F0BBCF898190E09093BC010B
:101640008093BB018B8190E09093BE018093BD019C
:101650000ACFFA94ECCF81309105E9F58091D90158
:101660009091DA0122813381821793070CF47CC0B8
:1016700011E000E024813581821793070CF036CF0A
:10168000F30110830183612F8B850E942F02F8E004
:10169000EF0EF11C22E0620E711C3B853F5F3B8721
:1016A00089859A8502969A8789873E3009F011CFFD
:1016B00068EE73E080E090E00E94B302E0E0F0E0CA
:1016C000EF2B09F4F9CC0E943A01882309F4F4CCF9
:1016D0000E940000F1CC8230910559F5628173813E
:1016E000072E000C880B990B0E94C30C9B01AC01C8
:1016F000C501B4010E94590D18160CF4DFC0F701A2
:1017000064817581072E000C880B990B0E94C30C15
:101710009B01AC01C501B4010E94BC0C87FD24C033
:1017200011E000E0F30180819181892B09F0A8CFBD
:10173000DDCE83309105D1F48091D9019091DA0109
:10174000228133818217930734F024813581281751
:1017500039070CF0B3C0F701118210821382128294
:10176000158214821782168210E0A9C08430910578
:10177000E9F58091D9019091DA0164E670E00E9468
:101780006A0D428153814115510551F424813581FF
:10179000821793074CF311E000E0268137816CCF6C
:1017A000E985FA85208131814217530719F41182A6
:1017B0001082D1CF24173507BCF6F701448155813B
:1017C0008417950734F046815781841795070CF4E8
:1017D00075C0F30180819181019709F051CF2F5F8E
:1017E0003F4FE985FA8531832083BECF853091054F
:1017F00019F562817381072E000C880B990B0E94EA
:10180000C30C9B01AC01C501B4010E94BC0C87FD57
:1018100055C0F70164817581072E000C880B990B68
:101820000E94C30C9B01AC01C501B4010E94590D7B
:1018300018160CF075CF98CF089709F021CF0480C7
:10184000F581E02DFD87EC87BF01FF0F880B990B19
:101850000E94C30C9B01AC01C201B1010E94590D51
:10186000181664F1F701C280D380B6010D2C000C6C
:10187000880B990B0E94C30C9B01AC01C201B10102
:101880000E94BC0C87FD1AC02C853D85C20ED31E5C
:10189000D7FE03C03FEFC31AD30AD594C794B6014D
:1018A000DD0C880B990B0E94C30C9B01AC01C2019B
:1018B000B1010E94BC0C8111E3CE56CF11E000E0D3
:1018C000DFCE8091D8029091D902009711F00C944C
:1018D000340E0895FC0188279927E894219120323D
:1018E000E9F3293010F02E30C8F32B3241F02D32BD
:1018F00039F4689404C00E94B40C820F911D2191A8
:1019000020532A30C0F31EF4909581959F4F08957F
:101910004EED52E00E948D0C0895FA01A191B08124
:10192000009719F41097E1F0CD01DC01CD010D9085
:10193000002011F4C00113C0FB012191222319F0F2
:101940002015D9F7F3CFFB012191201519F41E9230
:10195000119606C02223C1F70D900020A1F7D001F7
:10196000FA01A193B08308957AE0979F902D879F05
:10197000802D910D112408950E94FE0C08F481E041
:101980000895E89409C097FB3EF490958095709572
:1019900061957F4F8F4F9F4F9923A9F0F92F96E9BB
:1019A000BB279395F695879577956795B795F11130
:1019B000F8CFFAF4BB0F11F460FF1BC06F5F7F4FCD
:1019C0008F4F9F4F16C0882311F096E911C07723DF
:1019D00021F09EE8872F762F05C0662371F096E8E8
:1019E000862F70E060E02AF09A95660F771F881FB7
:1019F000DAF7880F9695879597F90895990F00085B
:101A0000550FAA0BE0E8FEEF16161706E807F907D0
:101A1000C0F012161306E407F50798F0621B730B6B
:101A2000840B950B39F40A2661F0232B242B252BEC
:101A300021F408950A2609F4A140A6958FEF811D8F
:101A4000811D08952F923F924F925F926F927F92E5
:101A50008F929F92AF92BF92CF92DF92EF92FF92BE
:101A60000F931F93CF93DF93CDB7DEB7CA1BDB0B6A
:101A70000FB6F894DEBF0FBECDBF09942A8839880F
:101A800048885F846E847D848C849B84AA84B98416
:101A9000C884DF80EE80FD800C811B81AA81B98122
:101AA000CE0FD11D0FB6F894DEBF0FBECDBFED0136
:101AB00008950E94FE0C08F48FEF0895991B79E0B9
:101AC00004C0991F961708F0961B881F7A95C9F7CE
:101AD0008095089597FB072E16F4009407D077FDA4
:101AE00009D00E947E0D07FC05D03EF490958195AB
:101AF0009F4F0895709561957F4F0895AA1BBB1B5A
:101B000051E107C0AA1FBB1FA617B70710F0A61BFD
:101B1000B70B881F991F5A95A9F780959095BC011E
:101B2000CD010895EE0FFF1F0590F491E02D09946B
:101B30000F931F93CF93DF938230910510F482E0CF
:101B400090E0E091E202F091E30230E020E0B0E0CA
:101B5000A0E0309799F42115310509F44AC0281BFB
:101B6000390B24303105D8F58A819B8161157105C7
:101B700089F1FB0193838283FE0111C04081518171
:101B80000281138148175907E0F04817590799F463
:101B9000109761F012960C93129713961C9332963D
:101BA000CF01DF91CF911F910F9108950093E20231
:101BB0001093E302F4CF2115310551F0421753077A
:101BC00038F0A901DB019A01BD01DF01F801C1CFA5
:101BD000EF01F9CF9093E3028093E202CDCFFE01B3
:101BE000E20FF31F819391932250310939832883A7
:101BF000D7CF2091E0023091E102232B41F42091D4
:101C00002201309123013093E1022093E0022091E0
:101C10002001309121012115310541F42DB73EB746
:101C20004091240150912501241B350BE091E002E5
:101C3000F091E102E217F307A0F42E1B3F0B2817E7
:101C4000390778F0AC014E5F5F4F2417350748F035
:101C50004E0F5F1F5093E1024093E00281939193F6
:101C60009FCFF0E0E0E09CCFCF93DF930097E9F0C7
:101C7000FC01329713821282A091E202B091E3023A
:101C8000ED0130E020E01097A1F420813181820F36
:101C9000931F2091E0023091E1022817390709F0E3
:101CA00061C0F093E102E093E002DF91CF910895EB
:101CB000EA01CE17DF07E8F54A815B819E014115F5
:101CC0005105B1F7E901FB83EA8349915991C40FAA
:101CD000D51FEC17FD0761F4808191810296840F76
:101CE000951FE90199838883828193819B838A83ED
:101CF000F0E0E0E012968D919C9113970097B9F572
:101D00002D913C911197CD010296820F931F209146
:101D1000E0023091E1022817390739F6309751F582
:101D20001092E3021092E202B093E102A093E0026B
:101D3000BCCFD383C28340815181840F951FC817C4
:101D4000D90761F44E5F5F4F88819981480F591F11
:101D5000518340838A819B8193838283211531053E
:101D600009F0B0CFF093E302E093E2029ECFFD01D1
:101D7000DC01C0CF13821282D7CFB0E0A0E0E3EC49
:101D8000FEE00C94240D8C01009751F4CB010E94CD
:101D9000980D8C01C801CDB7DEB7E0E10C94400D81
:101DA000FC01E60FF71F9C0122503109E217F307EF
:101DB00008F49DC0D901CD91DC911197C617D707C2
:101DC00098F0C530D10530F3CE01049786179707F8
:101DD00008F3C61BD70B2297C193D1936D937C93C5
:101DE000CF010E94340ED6CF5B01AC1ABD0A4C0164
:101DF0008C0E9D1EA091E202B091E302512C412C69
:101E0000F12CE12C109731F58091E0029091E102E4
:101E10008815990509F05CC04616570608F058C0A9
:101E20008091200190912101009741F48DB79EB7D8
:101E30004091240150912501841B950BE817F90767
:101E400008F055C0F093E102E093E002F9017183DC
:101E50006083A0CF8D919C91119712966C901297F0
:101E600013967C901397A815B90559F56C0142E0BB
:101E7000C40ED11CCA14DB0420F1AC014A195B0961
:101E8000DA011296159780F0628273825183408343
:101E9000D9016D937C93E114F10471F0D70113968D
:101EA000FC93EE93129776CF22968C0F9D1FF9012B
:101EB00091838083F301EFCFF093E302E093E2029A
:101EC00069CF4816590608F42C017D01D3019ACF39
:101ED000CB010E94980D7C01009749F0AE01B8013A
:101EE0000E947A0FC8010E94340E870153CF10E080
:101EF00000E050CFFB01DC0102C001900D92415087
:101F00005040D8F70895FB01DC0101900D920020AC
:101F1000E1F7089510E0C2E6D0E004C0FE010E949F
:0E1F2000920D2196C336D107C9F7F894FFCF72
:101F2E0000000100000000000000010000000000A1
:101F3E00000001000000000005000E001900000066
:101F4E000000E40280000000000070019000BD005F
:101F5E00BD012E01CC00200100000000920465049A
:0C1F6E00C1043B045E044B043C042C0046
:00000001FF
