:100000000C9463000C948B000C948B000C948B006C
:100010000C948B000C948B000C948B000C948B0034
:100020000C948B000C948B000C948B000C948B0024
:100030000C948B000C948B000C948B000C948B0014
:100040000C94A8080C948B000C9476080C9450081F
:100050000C948B000C948B000C948B000C948B00F4
:100060000C94F2080C948B00000000002400270080
:100070002A0000000000250028002B0000000000DE
:1000800023002600290004040404040404040202DA
:100090000202020203030303030301020408102007
:1000A0004080010204081020010204081020000012
:1000B0000008000201000003040700000000000027
:1000C0000000110A9D1111241FBECFEFD8E0DEBF42
:1000D000CDBF23E0ACE8B1E001C01D92A234B2076D
:1000E000E1F711E0A0E0B1E0E8E5FCE202C0059034
:1000F0000D92AC38B107D9F710E0C2E6D0E004C0E9
:100100002197FE010E942714C136D107C9F70E942A
:10011000730A0C941F160C94000008950895089516
:10012000DB0114964D915C9115976D917C91DC01EA
:10013000ED91FC910280F381E02D0994AF92BF9282
:10014000CF92DF92EF92FF920F931F93CF93DF93A3
:100150006C017B018B01040F151FEB015E01AE18D2
:10016000BF08C017D10759F06991D601ED91FC91F4
:100170000190F081E02DC6010995892B79F7C50121
:10018000DF91CF911F910F91FF90EF90DF90CF9073
:10019000BF90AF900895FC01538D448D252F30E022
:1001A000842F90E0821B930B541710F0CF96089584
:1001B00001970895FC01918D828D981761F0A28DB1
:1001C000AE0FBF2FB11D5D968C91928D9F5F9F7377
:1001D000928F90E008958FEF9FEF08952FB7F894D6
:1001E00080916B0290916C02A0916D02B0916E02B1
:1001F0002FBF8093770290937802A0937902B093F7
:100200007A028FE692E00E94DA0097FF26C02FB7AD
:10021000F89480916B0290916C02A0916D02B09164
:100220006E022FBF4091770250917802609179025F
:1002300070917A02841B950BA60BB70B4091730249
:10024000509174026091750270917602841795073F
:10025000A607B707B0F28FEF9FEF0895FC01918DCD
:10026000828D981731F0828DE80FF11D858D90E019
:1002700008958FEF9FEF0895FC01918D228D892FB6
:1002800090E0805C9F4F821B91098F73992708959E
:100290008FE692E00E943C0121E0892B09F420E0E6
:1002A000822F089580E090E0892B29F00E94480178
:1002B00081110C9400000895FC01A48DA80FB92FA2
:1002C000B11DA35ABF4F2C91848D90E001968F737E
:1002D0009927848FA689B7892C93A089B1898C919D
:1002E000837080648C93938D848D981306C00288EC
:1002F000F389E02D80818F7D80830895EF92FF92B6
:100300000F931F93CF93DF93EC0181E0888F9B8D38
:100310008C8D98131AC0E889F989808185FF15C0F2
:100320009FB7F894EE89FF896083E889F989808115
:100330008370806480839FBF81E090E0DF91CF91E4
:100340001F910F91FF90EF900895F62E0B8D10E006
:100350000F5F1F4F0F731127E02E8C8D8E110CC075
:100360000FB607FCFACFE889F989808185FFF5CFC0
:10037000CE010E945C01F1CFEB8DEC0FFD2FF11D42
:10038000E35AFF4FF0829FB7F8940B8FEA89FB89FD
:1003900080818062CFCFCF93DF93EC01888D88235B
:1003A000B9F0AA89BB89E889F9898C9185FD03C0D8
:1003B000808186FD0DC00FB607FCF7CF8C9185FFBD
:1003C000F2CF808185FFEDCFCE010E945C01E9CFA5
:1003D000DF91CF910895833081F028F4813099F036
:1003E0008230A9F008958730A9F08830C9F08430B0
:1003F000B1F4809180008F7D03C0809180008F7761
:1004000080938000089584B58F7784BD089584B566
:100410008F7DFBCF8091B0008F778093B0000895DF
:100420008091B0008F7DF9CFCF93DF93282F30E0FC
:10043000F901E255FF4F8491F901E656FF4FD4913F
:10044000F901EA57FF4FC491CC23A1F081110E941A
:10045000EB01EC2FF0E0EE0FFF1FE458FF4FA591EA
:10046000B491EC91ED2381E090E009F480E0DF911C
:10047000CF91089580E090E0FACF1F93CF93DF9360
:10048000282F30E0F901E255FF4F8491F901E6563B
:10049000FF4FD491F901EA57FF4FC491CC23A9F043
:1004A000162F81110E94EB01EC2FF0E0EE0FFF1FE1
:1004B000EE58FF4FA591B4918FB7F894EC911111BC
:1004C00008C0D095DE23DC938FBFDF91CF911F91C1
:1004D0000895DE2BF8CFCF93DF9390E0FC01E65632
:1004E000FF4F24918A579F4FFC0184918823D1F0BC
:1004F00090E0880F991FFC01E859FF4FA591B49136
:10050000FC01EE58FF4FC591D49161110EC09FB709
:10051000F8948C91E22FE0958E238C932881E2232E
:10052000E8839FBFDF91CF9108958FB7F894EC9146
:10053000E22BEC938FBFF6CF3FB7F8948091D101B7
:100540009091D201A091D301B091D40126B5A89B7E
:1005500005C02F3F19F00196A11DB11D3FBFBA2F55
:10056000A92F982F8827BC01CD01620F711D811D15
:10057000911D42E0660F771F881F991F4A95D1F79A
:1005800008958F929F92AF92BF92CF92DF92EF9297
:10059000FF924B015C010E949C026B017C010E9456
:1005A0009C026C197D098E099F09683E7340810584
:1005B0009105A8F321E0821A9108A108B10888EEFC
:1005C000C80E83E0D81EE11CF11C81149104A10423
:1005D000B10429F7FF90EF90DF90CF90BF90AF90DC
:1005E0009F908F9008952091AD01260F3327331FE0
:1005F00021323105ECF420914102FC0190E080E0D1
:10060000243069F082E00895A091AD012191AC0100
:1006100043575E4FA40FB52FB11D2C93019686173B
:1006200098F38091AD01680F6093AD0180E008956B
:1006300081E008951092410281E08093400210927F
:100640001B0261E082E10E943D0261E083E10E94C1
:100650003D02E9EBF0E080818E7F808380818D7F99
:10066000808388E48093B80085E48093BC0008957B
:10067000CF93DF9391E090938C018823B9F0C091E0
:10068000B800D091BA008091BC008A7B8093BC00F6
:1006900060E082E10E943D0260E083E10E943D0251
:1006A0000E941A03D093BA00C093B800DF91CF9193
:1006B0000895CF92DF92EF92FF920F931F93CF9303
:1006C000DF93D0916A0281E0D13208F09CC0C091E2
:1006D00069020E949C026B017C01809141028111A0
:1006E0006CC082E08093410281E0809340028FEFF2
:1006F00080933F0210923E02D0933D02A9E4B2E003
:10070000EDE1F2E080E0D8138DC010921C028091E0
:100710001C02CC0FC82BC0931C0280911B0281309D
:1007200009F084C010921B020E949C026B017C01A4
:1007300080911C028093BB008091430290914402FF
:10074000A0914502B0914602892B8A2B8B2BA1F0F8
:100750000E949C02009143021091440220914502A4
:10076000309146026C197D098E099F0906171707FB
:100770002807390708F442C08091BC0083FDD8CF18
:1007800085EC8093BC000E949C026B017C018091EF
:100790004102823009F44CC080913F028F3F09F43E
:1007A00069C080913F02803209F466C080913F02A7
:1007B000803309F463C084E026C0809143029091A5
:1007C0004402A0914502B0914602892B8A2B8B2BC3
:1007D00009F483CF0E949C020091430210914402CD
:1007E00020914502309146026C197D098E099F09BE
:1007F000061717072807390708F06FCF80914202C4
:100800000E94380385E01092480210926A0210920A
:100810004702DF91CF911F910F91FF90EF90DF90F2
:10082000CF9008959D9191938F5F6DCF85EEA9CF65
:100830008091430290914402A0914502B0914602FA
:10084000892B8A2B8B2B09F4A2CF0E949C0200914A
:1008500043021091440220914502309146026C19E6
:100860007D098E099F09061717072807390708F021
:100870008ECFC4CF80E0C7CF82E0C5CF83E0C3CFA7
:100880000895E091DA018091D901E81730F4F0E0A1
:10089000E552FE4F808190E008958FEF9FEF08951D
:1008A0009091DA018091D9012FEF3FEF981748F42A
:1008B000E92FF0E0E552FE4F208130E09F5F9093FA
:1008C000DA01C90108958091D9019091DA01891B5B
:1008D000990B0895CF92DF92EF92FF920F931F939F
:1008E000CF93DF937C01CB018A0120914702222321
:1008F00089F0EB016B01C40ED51ECC15DD0569F046
:100900006991D701ED91FC910190F081E02DC70133
:100910000995F3CF642F0E94F302C801DF91CF91B4
:100920001F910F91FF90EF90DF90CF900895CF939C
:10093000DF931F92CDB7DEB7698320914702222350
:10094000F9F020916A02203258F021E030E0FC01F9
:100950003383228390E080E00F90DF91CF91089560
:1009600080914802E82FF0E0E75BFD4F998190838A
:100970008F5F8093480280936A0281E090E0ECCF21
:1009800061E0CE0101960E94F302F7CF90E080E093
:1009900008950F931F93CF93DF93082F162FD42F13
:1009A00081E08093470288E68093690210924802B2
:1009B00010926A0260E08CE093E00E949704CAE023
:1009C000802F6C2F0E94F3138295807F682F690F10
:1009D0008CE093E00E949704812F6C2F0E94F31308
:1009E0008295807F682F690F8CE093E00E949704C6
:1009F0008D2F6C2F0E94F3138295807F682F690FD3
:100A00008CE093E00E949704DF91CF911F910F91AA
:100A10000C945903CF93DF93EC0160E08E810E9428
:100A20003D0261E08E810E943D0260E08E810E9465
:100A30003D028BE891E00197F1F7DF91CF910895A6
:100A4000CF92DF92EF92FF920F931F93CF93DF939A
:100A50006C017C0187E0E80EF11CD0E0C0E0062FBD
:100A600010E0B8010C2E02C0759567950A94E2F764
:100A70006170F70181917F010E943D022196C4308F
:100A8000D10579F7C601DF91CF911F910F91FF90AA
:100A9000EF90DF90CF900C940A05CF92DF92EF9207
:100AA000FF920F931F93CF93DF93EC01F62E642FE9
:100AB0008C810E943D028D818F3F19F060E00E9481
:100AC0003D020F2D10E08F8584FF25C06E0187E069
:100AD000C80ED11CF12CE12CB8010E2C02C075956A
:100AE00067950A94E2F76170F60181916F010E94A7
:100AF0003D02FFEFEF1AFF0A88E0E816F10461F704
:100B0000CE01DF91CF911F910F91FF90EF90DF9079
:100B1000CF900C940A05B80184E0759567958A9585
:100B2000E1F7CE010E9420056F2DCE01DF91CF911C
:100B30001F910F91FF90EF90DF90CF900C942005C4
:100B400040E0682F84E293E00C944D0581E00E9420
:100B5000A0058BE39FE10197F1F70895CF93DF9311
:100B6000823029F4909133039860909333038093FB
:100B700037031092380380E48093390380E1809337
:100B80003A0380E580933B0361E0809128030E9453
:100B90006B02809129038F3F19F061E00E946B0284
:100BA00061E080912A030E946B02C4E2D3E09E01BF
:100BB000245233408091330384FD0BC084E090E0E5
:100BC00021962817390744F461E08E810E946B0258
:100BD000EECF88E090E0F4CF8BE39DE00197F1F752
:100BE00060E0809128030E943D0260E080912A032A
:100BF0000E943D02809129038F3F19F060E00E941E
:100C00003D028091330384FD34C063E084E293E0CD
:100C10000E942005CBE4D6E4CE010197F1F763E012
:100C200084E293E00E9420052197F1F763E084E2DB
:100C300093E00E94200583E592E00197F1F762E0DE
:100C400084E293E00E9420058091330380620E9439
:100C5000A00584E0809334038CE00E94A0050E94EC
:100C6000A60582E08093350386E0DF91CF910C9456
:100C7000A00580620E94A0058BE496E40197F1F73D
:100C80008091330380620E94A00583E592E0019782
:100C9000F1F78091330380620E94A005D5CF909137
:100CA0003703691710F06FEF690FE62FF0E0EC5D86
:100CB000FC4F9489890F80680C94A00541E00E9444
:100CC0004D0581E090E00895CF93DF93EC0188819A
:100CD0009981009711F00E94C914198218821D820F
:100CE0001C821B821A82DF91CF910895FC018081C2
:100CF0009181009711F00C94C91408950F931F93DC
:100D0000CF93DF93EC0188819981009759F02A8174
:100D10003B812617370730F081E0DF91CF911F919B
:100D20000F9108958B016F5F7F4F0E9452150097BE
:100D300059F0998388831B830A832C813D81232B5F
:100D400059F7FC011082E8CF80E0E7CFEF92FF92E5
:100D50000F931F93CF93DF936115710541F480E0EA
:100D6000DF91CF911F910F91FF90EF900895411562
:100D70005105B1F07B01EC010C811D81040F151FA1
:100D8000B8010E947E06882351F3288139818C8125
:100D90009D81B701820F931F0E9418161D830C833B
:100DA00081E0DECFCF93DF93EC01FB0101900020C7
:100DB000E9F73197AF01461B570B0E94A606811138
:100DC00003C0CE010E946406CE01DF91CF91089549
:100DD000CF93DF93EC01FB014481558160817181E8
:100DE0000E94A606811103C0CE010E946406CE01B6
:100DF000DF91CF910895EF92FF920F931F93CF93BE
:100E0000DF93EC017B018A01BA010E947E06811109
:100E10000BC0CE010E946406CE01DF91CF911F91DD
:100E20000F91FF90EF9008951D830C83B701888187
:100E300099810E941816F0CFFB0101900020E9F77C
:100E40003197AF01461B570B0C94FB060F931F9372
:100E5000CF93DF93CDB7DEB729970FB6F894DEBFF7
:100E60000FBECDBF8C01862FF80111821082138234
:100E70001282158214824AE0BE016F5F7F4F90E0BC
:100E80000E943312BE016F5F7F4FC8010E941C0792
:100E900029960FB6F894DEBF0FBECDBFDF91CF917C
:100EA0001F910F9108950F931F93CF93DF93CDB7A9
:100EB000DEB762970FB6F894DEBF0FBECDBF8C01D0
:100EC000CB01F801118210821382128215821482E2
:100ED0004AE0BE016F5F7F4F0E94EF11BE016F5F5E
:100EE0007F4FC8010E941C0762960FB6F894DEBFC0
:100EF0000FBECDBFDF91CF911F910F9108950F933A
:100F00001F93CF93DF93CDB7DEB7A2970FB6F894B8
:100F1000DEBF0FBECDBF8C01CB01BA01F80111823B
:100F2000108213821282158214822AE0AE014F5F72
:100F30005F4F0E94FA11BE016F5F7F4FC8010E9490
:100F40001C07A2960FB6F894DEBF0FBECDBFDF918F
:100F5000CF911F910F910895CF93DF93EC01FB0187
:100F60008617970749F0608171816115710541F01D
:100F7000448155810E94FB06CE01DF91CF910895F7
:100F80000E946406F9CFFC01118210821382128242
:100F9000158214820C94AC07FC011182108213821A
:100FA000128215821482FB0101900020E9F731972B
:100FB000AF01461B570B0C94FB060F931F93CF9367
:100FC000DF93CDB7DEB72C970FB6F894DEBF0FBE18
:100FD000CDBF8C016A3048F5CE0107960E942607E6
:100FE0006EE571E0CE0101960E94CC07BE01695FFB
:100FF0007F4FCE0101960E94E806BC01C8010E9405
:10100000C307CE0101960E947606CE0107960E9484
:101010007606C8012C960FB6F894DEBF0FBECDBF82
:10102000DF91CF911F910F9108950E942607F1CF74
:1010300085ED8093BC008091430290914402A09181
:101040004502B09146020796A11DB11D23E0B69559
:10105000A795979587952A95D1F72091BC0024FDF7
:1010600003C01092410208954091430250914402FE
:101070006091450270914602452B462B472B69F340
:101080000097A105B10541F025E32A95F1F700008D
:101090000197A109B109E1CF809142020C94380374
:1010A0001F920F920FB60F9211242F933F934F93DD
:1010B0005F936F937F938F939F93AF93BF93EF93C0
:1010C000FF938FE692E00E945C01FF91EF91BF9148
:1010D000AF919F918F917F916F915F914F913F91D0
:1010E0002F910F900FBE0F901F9018951F920F9287
:1010F0000FB60F9211242F938F939F93EF93FF932B
:10110000E0917F02F09180028081E0918502F09170
:10111000860282FD1BC09081809188028F5F8F7351
:1011200020918902821741F0E0918802F0E0E159B4
:10113000FD4F958F80938802FF91EF919F918F9142
:101140002F910F900FBE0F901F9018958081F4CFB4
:101150001F920F920FB60F9211242F933F938F93EC
:101160009F93AF93BF9380916B0290916C02A0917B
:101170006D02B0916E023091D00123E0230F2D3724
:1011800058F50196A11DB11D2093D00180936B02EB
:1011900090936C02A0936D02B0936E028091D10186
:1011A0009091D201A091D301B091D4010196A11DDB
:1011B000B11D8093D1019093D201A093D301B0933C
:1011C000D401BF91AF919F918F913F912F910F903B
:1011D0000FBE0F901F90189526E8230F0296A11DB1
:1011E000B11DD2CF1F920F920FB60F9211242F93E1
:1011F0003F934F935F936F937F938F939F93AF939F
:10120000BF93EF93FF938091B900887F803609F4F4
:101210004AC0F0F5883209F4A7C018F5803109F406
:101220009BC0B8F4882309F4F9C0883009F494C04D
:10123000FF91EF91BF91AF919F918F917F916F91AE
:101240005F914F913F912F910F900FBE0F901F9084
:101250001895883109F488C0803251F780933F0295
:1012600014C0803409F49DC040F48033B9F388334E
:10127000F9F680933F0285ECB0C0803509F485C053
:10128000883509F496C0883499F60E941808D0CFA2
:10129000883909F48CC038F5883729F050F488363D
:1012A00011F0803729F683E0809341021092CF013C
:1012B00057C0883809F47BC0803919F0803809F0AC
:1012C000B7CF8091CF01803208F071C0E091CF019B
:1012D00081E08E0F8093CF018091BB00F0E0E1555B
:1012E000FE4F80833DC0803B39F0E0F4803A09F442
:1012F00079C0883A09F09CCF84E080934102109233
:10130000AE011092AD01E091D701F091D80109959D
:101310008091AD0181110FC081E08093AD011092E9
:101320008D0109C0803C09F4A6CF883C09F4A3CF05
:10133000883B09F07DCFE091AE0181E08E0F809374
:10134000AE01F0E0E357FE4F80818093BB009091A7
:10135000AE018091AD0129C080911C028093BB0039
:1013600085EC8093BC0064CF90913E0280913D0259
:10137000981758F5E0913E0281E08E0F80933E026F
:10138000F0E0E35EFD4F8081E9CFE0913E0281E035
:101390008E0F80933E028091BB00F0E0E35EFD4F34
:1013A000808390913E0280913D029817C8F285E8B3
:1013B000D8CFE0913E0281E08E0F80933E02809173
:1013C000BB00F0E0E35EFD4F80838091400281111D
:1013D0005CCF81E080931B0284EA8093BC00109272
:1013E000410226CF85EC8093BC001092410280918F
:1013F000CF01803230F4E091CF01F0E0E155FE4FB3
:1014000010826091CF0170E0E091D501F091D6019A
:101410008FEA91E009951092CF010ACF10923F0216
:1014200034CFEFE6F2E01382128288EE93E0A0E080
:10143000B0E084839583A683B78322E331E03183D0
:10144000208325EC30E03587248724EC30E0378793
:10145000268720EC30E0318B208B21EC30E0338B81
:10146000228B22EC30E0358B248B26EC30E0378B5E
:10147000268B118E128E138E148EECE0F3E0138205
:10148000128284839583A683B78384E491E0918359
:101490008083E4E2F3E01382128286E591E0918397
:1014A000808382E084838FEF858383E0868384E07A
:1014B000878385E0808786E0818787E0828713863F
:1014C000148615861686178681E00E94AE0567E7AA
:1014D00071E08EE193E00E94CC0760E671E088E164
:1014E00093E00C94CC07CF93DF93CDB7DEB7A797EB
:1014F0000FB6F894DEBF0FBECDBF789484B582607E
:1015000084BD84B5816084BD85B5826085BD85B5A7
:10151000816085BD80916E00816080936E00109225
:1015200081008091810082608093810080918100A0
:101530008160809381008091800081608093800031
:101540008091B10084608093B1008091B00081608F
:101550008093B00080917A00846080937A008091BB
:101560007A00826080937A0080917A008160809313
:101570007A0080917A00806880937A001092C1008E
:101580001092DA011092D9011092480210926A0268
:101590000E941A038DE890E09093D8018093D701C0
:1015A0008EE890E09093D6018093D50182E00E946E
:1015B000AE0561E08AE00E946B0261E08BE00E9470
:1015C0006B0261E08CE00E946B0261E08DE00E94A2
:1015D0006B02E0917F02F091800282E08083E091D3
:1015E0007B02F0917C021082E0917D02F0917E02FC
:1015F0008FEC808310928702E0918302F091840245
:1016000086E08083E0918102F09182028081806196
:101610008083E0918102F0918202808188608083E2
:10162000E0918102F0918202808180688083E09164
:101630008102F091820280818F7D80834CE060E0A6
:1016400080E00E94C90480E40E94A00540E0E42EEE
:1016500041E0F42E58E0C52E51E0D52EF7016191FE
:101660007F0184E293E00E945E06CE14DF04B1F7AE
:10167000F1E0F093470288E68093690210924802F5
:1016800010926A0260E08CE093E00E9497040E944E
:1016900059030E949C026B017C01809141028111DF
:1016A00065C021E020934102209340028FEF809398
:1016B0003F0210923E0282E080933D0220931C0282
:1016C00080911C02806D80931C0280911B028130EE
:1016D00009F00EC110921B020E949C026B017C015A
:1016E00080911C028093BB00809143029091440240
:1016F000A0914502B0914602892B8A2B8B2BA1F039
:101700000E949C028090430290904402A090450267
:10171000B09046026C197D098E099F0986169706BE
:10172000A806B90608F443C08091BC0083FDD8CF59
:1017300085EC8093BC000E949C026B017C0180912F
:101740004102813009F4D6C080913E02833008F016
:10175000F3C080913E02EDE1F2E0ABEDB1E090E04C
:10176000981751F121912D939F5FFACF80914302F9
:1017700090914402A0914502B0914602892B8A2B98
:101780008B2B09F48ACF0E949C0280904302909098
:101790004402A0904502B09046026C197D098E0962
:1017A0009F0986169706A806B90608F076CF80919D
:1017B00042020E94380380E01092DA018093D9013E
:1017C0008CE093E00E945004982F929597703AE035
:1017D000F32E8F70D82E9F9DD00C11248CE093E0B7
:1017E0000E945004982F92959F708F70E82E9F9DB5
:1017F000E00C11248CE093E00E945004982F929505
:1018000093708F709F9D800D1124F82E6D2DCE0149
:1018100001960E94DD076E2DCE0107960E94DD071E
:101820006F2DCE0143960E94DD07BE016D5E7F4F96
:10183000CE010D960E94C30760E671E0CE010D96C1
:101840000E94D206BE01695F7F4F0E94E80660E6F3
:1018500071E00E94D206BE016F5F7F4F0E94E806D2
:10186000BC0188E193E00E94AC07CE010D960E9476
:101870007606CE0143960E947606CE0107960E9418
:101880007606CE0101960E9476068E2D90E034E613
:10189000F39E800D911D112490931A0280931902DA
:1018A0008FE692E00E943C01181619060CF0ABC0BE
:1018B0000E94A60546E050E062E671E084E293E013
:1018C0000E949E0067E771E0CE0101960E94CC075E
:1018D0000E94EE0097FD32C08F83188641E050E0F1
:1018E000BE01695F7F4FCE0101960E94A606F0CF30
:1018F00085EE1FCF8091430290914402A091450252
:10190000B0914602892B8A2B8B2B09F418CF0E94A9
:101910009C028090430290904402A0904502B090B7
:1019200046026C197D098E099F0986169706A8063E
:10193000B90608F004CF3BCF83E00DCF80911E03A2
:1019400090911F03009709F4F8C169817A816115AC
:10195000710509F4F0C140912003509121032D81BC
:101960003E814217530708F4E6C10E9418168D8184
:101970009E8190932303809322031E821D82CE01B9
:1019800001960E94760680911E0390911F0390930A
:1019900018028093170269E671E00E94C3110E9449
:1019A000A5117C0187E0E816F10409F0DDC169E6C4
:1019B00071E090E080E00E94C3110E94A511F82E12
:1019C00069E671E090E080E00E94C3110E94A511D9
:1019D000E82E69E671E090E080E00E94C3110E9469
:1019E000A511D82E69E671E090E080E00E94C31155
:1019F0004D2D6E2D8F2D0E94C90487E791E09093A5
:101A000018028093170219821A821B821C821D827F
:101A100061E089E00E946B0260E089E00E943D0283
:101A200062E170E080E090E00E94C10261E089E044
:101A30000E943D028BE990E00197F1F760E089E0B8
:101A40000E946B0281E1E82E87E2F82E89E00E9475
:101A50001402892B09F04DC2F1E0EF1AF108B1F739
:101A60006091FB017091FC01072E000C880B990B13
:101A70000E9464126B017C01C0921302D092140286
:101A8000E0921502F09216026091FD017091FE0144
:101A9000072E000C880B990B0E94641260930F02B2
:101AA00070931002809311029093120220E030E0B4
:101AB000A901C701B6010E94EE1320E030E040E02A
:101AC0005FE387FD80C2C701B6010E944C130E94EC
:101AD000B813AB01BC01CE0143960E947F07BE0143
:101AE0006D5E7F4FCE010D960E94C30768E771E0DF
:101AF000CE010D960E94D206BC01CE0107960E942F
:101B0000C307C0900F02D0901002E0901102F09035
:101B1000120220E030E0A901C701B6010E94EE13D5
:101B200020E030E040E05FE387FD52C2C701B6012C
:101B30000E944C130E94B813AB01BC01CE01499620
:101B40000E947F0768E173E0CE014F960E94C307B1
:101B500060E080E00E944F06BE01615E7F4FCE01D3
:101B600001960E94C3076AE771E0CE0101960E94C8
:101B7000D206BE01675E7F4F0E94E806BC0184E288
:101B800093E00E949000CE0101960E94760660E0EC
:101B90008BE00E944F0660E084E293E00E945E06C4
:101BA00060E08DE00E944F06BE01695F7F4F84E2D6
:101BB00093E00E949000CE014F960E947606CE01DF
:101BC00049960E947606CE0107960E947606CE01BF
:101BD0000D960E947606CE0143960E94760661E03D
:101BE00080E00E944F0680910D026CE771E088232F
:101BF00011F06EE771E0CE0101960E94CC07809152
:101C00000B026CE771E0882311F06EE771E0CE0102
:101C100007960E94CC07809109026CE771E0882347
:101C200011F06EE771E0CE010D960E94CC07809115
:101C300007026CE771E0882311F06EE771E0CE01D6
:101C400043960E94CC0760E871E0CE0149960E945D
:101C5000CC07BE016D5E7F4FCE0149960E94E8061B
:101C60006AE771E00E94D20663E871E00E94D20642
:101C7000BE01635F7F4F0E94E8066AE771E00E9441
:101C8000D20666E871E00E94D206BE01695F7F4F0E
:101C90000E94E8066AE771E00E94D20669E871E0F6
:101CA0000E94D206BE016F5F7F4F0E94E806BC0112
:101CB000CE014F960E94C307CE0149960E94760638
:101CC000CE0143960E947606CE010D960E947606BE
:101CD000CE0107960E947606CE0101960E947606F6
:101CE000BE01615E7F4F84E293E00E949000CE01CE
:101CF0004F960E94760698E0E92E91E0F92E27E0B3
:101D0000C22E22E0D22E3FEF232E31E0332EEAE026
:101D1000EDA349E0842E912CF701808191810097F9
:101D200009F05BC111E000E082819381019709F421
:101D3000C4C110E0C2C10E94C91489819A819093E4
:101D40001F0380931E038B819C81909321038093BA
:101D500020038D819E8190932303809322031A8216
:101D600019821C821B8209CE98E0E916F10409F061
:101D700085C060910D0270910E02CE0101960E9405
:101D8000530760910B0270910C02CE0107960E94DE
:101D900053076091090270910A02CE010D960E94CC
:101DA00053076091070270910802CE0149960E9484
:101DB0005307BE01675E7F4FCE0143960E94C30763
:101DC00069E671E0CE0143960E94D206BE01635FD0
:101DD0007F4F0E94E80669E671E00E94D206BE01CC
:101DE000695F7F4F0E94E80669E671E00E94D206B3
:101DF000BE016F5F7F4F0E94E806BC01CE014F9687
:101E00000E94C307CE0143960E947606CE014996F2
:101E10000E947606CE010D960E947606CE010796A8
:101E20000E947606CE0101960E9476060E94A605C3
:101E300060E080E00E944F0649E050E06BE671E010
:101E400084E293E00E949E00BE01615E7F4F8FE6B8
:101E500092E00E94900042E050E065E771E08FE67A
:101E600092E00E949E0068EE73E080E090E00E94A5
:101E7000C102CE014F960E947606BFCDE4E0EE1679
:101E8000F10408F0BACD69E671E090E080E00E94CC
:101E9000C3110E94A51123E0EE0CFF1C2A95E1F767
:101EA0009701285F3E4F7901F9019183808369E6AC
:101EB00071E090E080E00E94C3110E94A511F7013B
:101EC0009383828369E671E090E080E00E94C31111
:101ED0000E94A511F7019583848369E671E090E083
:101EE00080E00E94C3110E94A511F70197838683A9
:101EF00084CDB1E1EB2EB7E2FB2E89E00E94140203
:101F0000019729F421E0E21AF108B9F7A9CDE8E236
:101F1000CE2ED12CF7E0FF2EE12C88248394912C37
:101F200071E1A72E77E2B72E89E00E941402892B77
:101F300029F431E0A31AB108B9F792CD0E949C02AE
:101F40002B013C0161E1A62E67E2B62E89E00E94DA
:101F50001402019729F481E0A81AB108B9F780CDDD
:101F60000E949C02641975098609970969327105F6
:101F70008105910578F0E1E0F0E0EC0FFD1FEE0D3A
:101F8000F11D808194010F2C01C0220F0A94EAF701
:101F9000822B8083F11015C0E39457E0F52E91E079
:101FA000C91AD10809F0BCCF898190E09093FC0157
:101FB0008093FB018B8190E09093FE018093FD0163
:101FC0004FCDFA94ECCFC701B6010E944B137FCDE1
:101FD000C701B6010E944B13ADCD8130910591F43C
:101FE0008091190290911A022281338182179307FE
:101FF0000CF461C024813581821793070CF05BC01B
:1020000011E05AC08230910579F540900F0250904E
:102010001002609011027090120262817381072E8B
:10202000000C880B990B0E946412A30192010E947C
:102030005D1287FDE5CFF70164817581072E000CE5
:10204000880B990B0E9464129B01AC01C301B20181
:102050000E945D1287FD2FC011E000E0F601808133
:102060009181892B51F565CE8330910509F04EC0E1
:102070008091190290911A0222813381821793076D
:1020800034F024813581821793070CF4B9CFF6011F
:10209000208131812130310581F4F701248135819E
:1020A0002817390754F41182108213821282158284
:1020B00014821782168210E000E0F601108301837B
:1020C000612F8DA10E943D02F8E0EF0EF11C22E08D
:1020D000C20ED11C3DA13F5F3DA382E0280E311C02
:1020E0003E3009F019CE68EE73E080E090E00E9487
:1020F000C102E0E0F0E0EF2B09F4BACA0E94480107
:10210000882309F4B5CA0E940000B2CA8430910540
:10211000E1F58091190290911A0264E670E00E9444
:10212000FF13428153814115510549F424813581C2
:10213000821793070CF4BFCF268137815DCFF10161
:10214000208131814217530721F411821082F70157
:10215000AACF241735070CF0AECFF7014481558183
:102160008417950734F046815781841795070CF43E
:1021700047CFF60180819181019709F09ECF2F5FB3
:102180003F4FF1013183208396CF8530910551F582
:1021900040900F0250901002609011027090120255
:1021A00062817381072E000C880B990B0E946412C8
:1021B000A30192010E94EE1318160CF421CFF7012F
:1021C00064817581072E000C880B990B0E946412A4
:1021D0009B01AC01C301B2010E94EE1318160CF072
:1021E0003BCF69CF8630910509F05FC0F0E4F093F2
:1021F0007C0080917A00806480937A0080917A00DC
:1022000086FDFCCF8091780090917900F70146819E
:10221000578160E971E0641B750B228133812115C0
:10222000310539F4861797070CF045CF91828082EB
:10223000E7CE2130310541F4861797070CF0E0CE48
:10224000F7019182808237CF40575E4F22303105AF
:1022500061F4861797070CF4D3CE481759070CF48E
:102260002ACFF6011081018128CF2330310549F4AE
:10227000861797070CF41FCF481759070CF4C0CEE8
:10228000F0CF2430310521F4481759077CF215CFDF
:102290002530310529F4481759070CF0B1CED0CFBD
:1022A0002830310509F009CFDCCF089709F005CFB8
:1022B0000480F581E02DFFA3EEA34090130250901F
:1022C00014026090150270901602BF01FF0F880B78
:1022D000990B0E946412A30192010E945D1287FD76
:1022E0008FCEF701A280B380B5010B2C000C880BB8
:1022F000990B0E9464129B01AC01C301B2010E94C0
:102300005D1287FD7DCE2EA13FA1A20EB31EB7FEAA
:1023100003C03FEFA31AB30AB594A794B501BB0C51
:10232000880B990B0E9464129B01AC01C301B2019E
:102330000E945D128111C1CEBECE88E193E00E9461
:1023400076068EE193E00C947606FC0188279927A7
:10235000E89421912032E9F3293010F02E30C8F3AF
:102360002B3241F02D3239F4689404C00E940912D6
:10237000820F911D219120532A30C0F31EF49095B5
:1023800081959F4F08954CE353E00E94C811089532
:10239000FA01A191B081009719F41097E1F0CD01F5
:1023A000DC01CD010D90002011F4C00113C0FB0130
:1023B0002191222319F02015D9F7F3CFFB012191A8
:1023C000201519F41E92119606C02223C1F70D9014
:1023D0000020A1F7D001FA01A193B0830895BB2793
:1023E0004A3031F4992322F4BDE2909581959F4FB4
:1023F0000C943412BB272A3051F4992342F4BDE2E5
:1024000090958095709561957F4F8F4F9F4F0C945D
:1024100012127AE0979F902D879F802D910D1124A5
:102420000895BB27FA01A62F621771058105910552
:10243000330B30FB66F0AA27660F771F881F991FA2
:10244000AA1FA21710F0A21B63953850A9F7A05D30
:10245000AA3308F0A95DA19336F7B111B1931082A8
:10246000CA010C944D12BB27FB015527AA27880FE0
:10247000991FAA1FA41710F0A41B83955051B9F7F8
:10248000A05DAA3308F0A95DA193009779F7B11177
:10249000B1931192CB010C944D12DC01FC01672F1A
:1024A00071917723E1F7329704C07C916D9370832B
:1024B0006291AE17BF07C8F308950E949F1208F4F7
:1024C00081E00895E89409C097FB3EF490958095CB
:1024D000709561957F4F8F4F9F4F9923A9F0F92FEA
:1024E00096E9BB279395F695879577956795B79568
:1024F000F111F8CFFAF4BB0F11F460FF1BC06F5F4E
:102500007F4F8F4F9F4F16C0882311F096E911C05F
:10251000772321F09EE8872F762F05C0662371F080
:1025200096E8862F70E060E02AF09A95660F771F94
:10253000881FDAF7880F9695879597F90895990F70
:102540000008550FAA0BE0E8FEEF16161706E8077D
:10255000F907C0F012161306E407F50798F0621B9E
:10256000730B840B950B39F40A2661F0232B242B73
:10257000252B21F408950A2609F4A140A6958FEF92
:10258000811D811D089597F99F6780E870E060E0E4
:1025900008959FEF80EC089500240A9416161706FC
:1025A00018060906089500240A9412161306140644
:1025B00005060895092E0394000C11F4882352F0A7
:1025C000BB0F40F4BF2B11F460FF04C06F5F7F4F5F
:1025D0008F4F9F4F089557FD9058440F551F59F046
:1025E0005F3F71F04795880F97FB991F61F09F3F00
:1025F00079F087950895121613061406551FF2CF29
:102600004695F1DF08C0161617061806991FF1CF78
:1026100086957105610508940895E894BB2766279F
:102620007727CB0197F908952F923F924F925F92AF
:102630006F927F928F929F92AF92BF92CF92DF92D2
:10264000EF92FF920F931F93CF93DF93CDB7DEB737
:10265000CA1BDB0B0FB6F894DEBF0FBECDBF0994CB
:102660002A88398848885F846E847D848C849B8422
:10267000AA84B984C884DF80EE80FD800C811B8130
:10268000AA81B981CE0FD11D0FB6F894DEBF0FBE5F
:10269000CDBFED0108955058BB27AA270E946313B0
:1026A0000C94DA120E94CC1238F00E94D31220F05F
:1026B00039F49F3F19F426F40C94C9120EF4E095F6
:1026C000E7FB0C94C312E92F0E94EB1258F3BA17E0
:1026D000620773078407950720F079F4A6F50C9438
:1026E0000D130EF4E0950B2EBA2FA02D0B01B9019E
:1026F00090010C01CA01A0011124FF27591B99F078
:10270000593F50F4503E68F11A16F040A22F232F83
:10271000342F4427585FF3CF469537952795A795D3
:10272000F0405395C9F77EF41F16BA0B620B730B7A
:10273000840BBAF09150A1F0FF0FBB1F661F771FEB
:10274000881FC2F70EC0BA0F621F731F841F48F4A0
:10275000879577956795B795F7959E3F08F0B0CF29
:102760009395880F08F09927EE0F97958795089510
:102770000E94BF136894B1110C940E1308950E9427
:10278000F31288F09F5798F0B92F9927B751B0F0FE
:10279000E1F0660F771F881F991F1AF0BA95C9F7E5
:1027A00014C0B13091F00E940D13B1E008950C9463
:1027B0000D13672F782F8827B85F39F0B93FCCF316
:1027C000869577956795B395D9F73EF49095809562
:1027D000709561957F4F8F4F9F4F08950E949F1274
:1027E00008F48FEF0895991B79E004C0991F96179C
:1027F00008F0961B881F7A95C9F78095089597FB76
:10280000072E16F4009407D077FD09D00E94131408
:1028100007FC05D03EF4909581959F4F08957095E3
:1028200061957F4F0895AA1BBB1B51E107C0AA1FEA
:10283000BB1FA617B70710F0A61BB70B881F991F61
:102840005A95A9F780959095BC01CD010895EE0F9A
:10285000FF1F0590F491E02D09940F931F93CF93E0
:10286000DF938230910510F482E090E0E091400324
:10287000F091410330E020E0B0E0A0E0309799F41F
:102880002115310509F44AC0281B390B24303105C4
:10289000D8F58A819B816115710589F1FB019383CC
:1028A0008283FE0111C0408151810281138148174A
:1028B0005907E0F04817590799F4109761F01296FC
:1028C0000C93129713961C933296CF01DF91CF9100
:1028D0001F910F9108950093400310934103F4CF8B
:1028E0002115310551F04217530738F0A901DB01DA
:1028F0009A01BD01DF01F801C1CFEF01F9CF90933B
:10290000410380934003CDCFFE01E20FF31F81937B
:1029100091932250310939832883D7CF20913E03E8
:1029200030913F03232B41F420912A0130912B0158
:1029300030933F0320933E032091280130912901D9
:102940002115310541F42DB73EB740912C0150912E
:102950002D01241B350BE0913E03F0913F03E2175C
:10296000F307A0F42E1B3F0B2817390778F0AC01B2
:102970004E5F5F4F2417350748F04E0F5F1F50938F
:102980003F0340933E03819391939FCFF0E0E0E0BB
:102990009CCFCF93DF930097E9F0FC01329713822D
:1029A0001282A0914003B0914103ED0130E020E09C
:1029B0001097A1F420813181820F931F20913E0353
:1029C00030913F032817390709F061C0F0933F03A6
:1029D000E0933E03DF91CF910895EA01CE17DF0720
:1029E000E8F54A815B819E0141155105B1F7E90186
:1029F000FB83EA8349915991C40FD51FEC17FD075A
:102A000061F4808191810296840F951FE901998379
:102A10008883828193819B838A83F0E0E0E0129631
:102A20008D919C9113970097B9F52D913C91119739
:102A3000CD010296820F931F20913E0330913F03F8
:102A40002817390739F6309751F510924103109243
:102A50004003B0933F03A0933E03BCCFD383C28314
:102A600040815181840F951FC817D90761F44E5FCB
:102A70005F4F88819981480F591F518340838A8114
:102A80009B81938382832115310509F0B0CFF093A8
:102A90004103E09340039ECFFD01DC01C0CF1382D0
:102AA0001282D7CFB0E0A0E0E8E5F5E10C94161370
:102AB0008C01009751F4CB010E942D148C01C801A8
:102AC000CDB7DEB7E0E10C943213FC01E60FF71F3F
:102AD0009C0122503109E217F30708F49DC0D90187
:102AE000CD91DC911197C617D70798F0C530D10565
:102AF00030F3CE0104978617970708F3C61BD70B50
:102B00002297C193D1936D937C93CF010E94C914F6
:102B1000D6CF5B01AC1ABD0A4C018C0E9D1EA09154
:102B20004003B0914103512C412CF12CE12C109722
:102B300031F580913E0390913F038815990509F086
:102B40005CC04616570608F058C080912801909145
:102B50002901009741F48DB79EB740912C01509107
:102B60002D01841B950BE817F90708F055C0F09369
:102B70003F03E0933E03F90171836083A0CF8D9101
:102B80009C91119712966C90129713967C901397C4
:102B9000A815B90559F56C0142E0C40ED11CCA1440
:102BA000DB0420F1AC014A195B09DA011296159792
:102BB00080F06282738251834083D9016D937C934C
:102BC000E114F10471F0D7011396FC93EE93129780
:102BD00076CF22968C0F9D1FF90191838083F3019C
:102BE000EFCFF0934103E093400369CF48165906B5
:102BF00008F42C017D01D3019ACFCB010E942D1442
:102C00007C01009749F0AE01B8010E940F16C8017F
:102C10000E94C914870153CF10E000E050CFFB01A0
:102C2000DC0102C001900D9241505040D8F7089548
:102C3000FB01DC0101900D920020E1F7089510E006
:102C4000C2E6D0E004C0FE010E9427142196C336DC
:082C5000D107C9F7F894FFCF8A
:102C580010000F0908090F00000001000000000023
:102C6800000001000000000000000100000000005A
:102C780005000E001900000000004203800000005B
:102C880000007E019E00CB00CB013C01DA002E0142
:102C98000000000097046A04C6044004630450045A
:102CA8004104000000005E069E00C6048F0030004C
:102CB8003A00576169742E2E002C0053656E6469C2
:102CC8006E672E2E000D0A002500200058002F00E8
:0C2CD800312D00322D00332D00342D0072
:00000001FF
